{
  "contractName": "Campaign",
  "abi": [
    {
      "constant": true,
      "inputs": [],
      "name": "getBudget",
      "outputs": [
        {
          "name": "_token",
          "type": "address"
        },
        {
          "name": "_amount",
          "type": "uint256"
        }
      ],
      "payable": false,
      "stateMutability": "view",
      "type": "function"
    },
    {
      "constant": false,
      "inputs": [
        {
          "name": "_referrer",
          "type": "address"
        }
      ],
      "name": "join",
      "outputs": [],
      "payable": false,
      "stateMutability": "nonpayable",
      "type": "function"
    },
    {
      "constant": false,
      "inputs": [],
      "name": "unpause",
      "outputs": [],
      "payable": false,
      "stateMutability": "nonpayable",
      "type": "function"
    },
    {
      "constant": true,
      "inputs": [],
      "name": "paused",
      "outputs": [
        {
          "name": "",
          "type": "bool"
        }
      ],
      "payable": false,
      "stateMutability": "view",
      "type": "function"
    },
    {
      "constant": true,
      "inputs": [],
      "name": "getReferrer",
      "outputs": [
        {
          "name": "_referrer",
          "type": "address"
        }
      ],
      "payable": false,
      "stateMutability": "view",
      "type": "function"
    },
    {
      "constant": true,
      "inputs": [],
      "name": "getAvailableBalance",
      "outputs": [
        {
          "name": "_balance",
          "type": "uint256"
        }
      ],
      "payable": false,
      "stateMutability": "view",
      "type": "function"
    },
    {
      "constant": false,
      "inputs": [],
      "name": "pause",
      "outputs": [],
      "payable": false,
      "stateMutability": "nonpayable",
      "type": "function"
    },
    {
      "constant": true,
      "inputs": [],
      "name": "owner",
      "outputs": [
        {
          "name": "",
          "type": "address"
        }
      ],
      "payable": false,
      "stateMutability": "view",
      "type": "function"
    },
    {
      "constant": true,
      "inputs": [],
      "name": "state",
      "outputs": [
        {
          "name": "",
          "type": "uint8"
        }
      ],
      "payable": false,
      "stateMutability": "view",
      "type": "function"
    },
    {
      "constant": false,
      "inputs": [
        {
          "name": "newOwner",
          "type": "address"
        }
      ],
      "name": "transferOwnership",
      "outputs": [],
      "payable": false,
      "stateMutability": "nonpayable",
      "type": "function"
    },
    {
      "inputs": [
        {
          "name": "_token",
          "type": "address"
        },
        {
          "name": "_budgetAmount",
          "type": "uint256"
        },
        {
          "name": "_payoffStrategy",
          "type": "address"
        }
      ],
      "payable": false,
      "stateMutability": "nonpayable",
      "type": "constructor"
    },
    {
      "payable": false,
      "stateMutability": "nonpayable",
      "type": "fallback"
    },
    {
      "anonymous": false,
      "inputs": [
        {
          "indexed": false,
          "name": "campaign",
          "type": "address"
        }
      ],
      "name": "CampaignCreated",
      "type": "event"
    },
    {
      "anonymous": false,
      "inputs": [
        {
          "indexed": false,
          "name": "campaign",
          "type": "address"
        },
        {
          "indexed": false,
          "name": "previousState",
          "type": "uint8"
        },
        {
          "indexed": false,
          "name": "currentState",
          "type": "uint8"
        }
      ],
      "name": "CampaignStateChanged",
      "type": "event"
    },
    {
      "anonymous": false,
      "inputs": [],
      "name": "Pause",
      "type": "event"
    },
    {
      "anonymous": false,
      "inputs": [],
      "name": "Unpause",
      "type": "event"
    },
    {
      "anonymous": false,
      "inputs": [
        {
          "indexed": true,
          "name": "previousOwner",
          "type": "address"
        },
        {
          "indexed": true,
          "name": "newOwner",
          "type": "address"
        }
      ],
      "name": "OwnershipTransferred",
      "type": "event"
    }
  ],
  "bytecode": "0x606060405260008060146101000a81548160ff021916908315150217905550341561002957600080fd5b604051606080610e1d83398101604052808051906020019091908051906020019091908051906020019091905050336000806101000a81548173ffffffffffffffffffffffffffffffffffffffff021916908373ffffffffffffffffffffffffffffffffffffffff16021790555060408051908101604052808473ffffffffffffffffffffffffffffffffffffffff16815260200183815250600160008201518160000160006101000a81548173ffffffffffffffffffffffffffffffffffffffff021916908373ffffffffffffffffffffffffffffffffffffffff1602179055506020820151816001015590505080600460006101000a81548173ffffffffffffffffffffffffffffffffffffffff021916908373ffffffffffffffffffffffffffffffffffffffff1602179055506000600460146101000a81548160ff0219169083600481111561017857fe5b0217905550505050610c8e8061018f6000396000f3006060604052600436106100a4576000357c0100000000000000000000000000000000000000000000000000000000900463ffffffff168063127714c7146100b157806328ffe6c81461010d5780633f4ba83a146101465780635c975abb1461015b5780635e52a00b14610188578063809dab6a146101dd5780638456cb59146102065780638da5cb5b1461021b578063c19d93fb14610270578063f2fde38b146102a7575b34156100af57600080fd5b005b34156100bc57600080fd5b6100c46102e0565b604051808373ffffffffffffffffffffffffffffffffffffffff1673ffffffffffffffffffffffffffffffffffffffff1681526020018281526020019250505060405180910390f35b341561011857600080fd5b610144600480803573ffffffffffffffffffffffffffffffffffffffff16906020019091905050610316565b005b341561015157600080fd5b6101596103f7565b005b341561016657600080fd5b61016e6104b5565b604051808215151515815260200191505060405180910390f35b341561019357600080fd5b61019b6104c8565b604051808273ffffffffffffffffffffffffffffffffffffffff1673ffffffffffffffffffffffffffffffffffffffff16815260200191505060405180910390f35b34156101e857600080fd5b6101f0610594565b6040518082815260200191505060405180910390f35b341561021157600080fd5b61021961059e565b005b341561022657600080fd5b61022e61065e565b604051808273ffffffffffffffffffffffffffffffffffffffff1673ffffffffffffffffffffffffffffffffffffffff16815260200191505060405180910390f35b341561027b57600080fd5b610283610683565b6040518082600481111561029357fe5b60ff16815260200191505060405180910390f35b34156102b257600080fd5b6102de600480803573ffffffffffffffffffffffffffffffffffffffff16906020019091905050610696565b005b600080600160000160009054906101000a900473ffffffffffffffffffffffffffffffffffffffff169150600180015490509091565b600180600481111561032457fe5b600460149054906101000a900460ff16600481111561033f57fe5b14151561034b57600080fd5b8160008173ffffffffffffffffffffffffffffffffffffffff161415151561037257600080fd5b82600061037d6104c8565b73ffffffffffffffffffffffffffffffffffffffff16141515156103a057600080fd5b60006103aa610594565b101515156103b757600080fd5b6103f13385600460009054906101000a900473ffffffffffffffffffffffffffffffffffffffff1660036107eb909392919063ffffffff16565b50505050565b6000809054906101000a900473ffffffffffffffffffffffffffffffffffffffff1673ffffffffffffffffffffffffffffffffffffffff163373ffffffffffffffffffffffffffffffffffffffff1614151561045257600080fd5b600060149054906101000a900460ff16151561046d57600080fd5b60008060146101000a81548160ff0219169083151502179055507f7805862f689e2f13df9f062ff482ad3ad112aca9e0847911ed832e158c525b3360405160405180910390a1565b600060149054906101000a900460ff1681565b6000600373__ReferralTree__________________________6347f6bc039091336000604051602001526040518363ffffffff167c0100000000000000000000000000000000000000000000000000000000028152600401808381526020018273ffffffffffffffffffffffffffffffffffffffff1673ffffffffffffffffffffffffffffffffffffffff1681526020019250505060206040518083038186803b151561057457600080fd5b6102c65a03f4151561058557600080fd5b50505060405180519050905090565b600061ddd5905090565b6000809054906101000a900473ffffffffffffffffffffffffffffffffffffffff1673ffffffffffffffffffffffffffffffffffffffff163373ffffffffffffffffffffffffffffffffffffffff161415156105f957600080fd5b600060149054906101000a900460ff1615151561061557600080fd5b6001600060146101000a81548160ff0219169083151502179055507f6985a02210a168e66602d3235cb6db0e70f92b3ba4d376a33c0f3d9434bff62560405160405180910390a1565b6000809054906101000a900473ffffffffffffffffffffffffffffffffffffffff1681565b600460149054906101000a900460ff1681565b6000809054906101000a900473ffffffffffffffffffffffffffffffffffffffff1673ffffffffffffffffffffffffffffffffffffffff163373ffffffffffffffffffffffffffffffffffffffff161415156106f157600080fd5b600073ffffffffffffffffffffffffffffffffffffffff168173ffffffffffffffffffffffffffffffffffffffff161415151561072d57600080fd5b8073ffffffffffffffffffffffffffffffffffffffff166000809054906101000a900473ffffffffffffffffffffffffffffffffffffffff1673ffffffffffffffffffffffffffffffffffffffff167f8be0079c531659141344cd1fd0a4f28419497f9722a3daafe3b4186f6b6457e060405160405180910390a3806000806101000a81548173ffffffffffffffffffffffffffffffffffffffff021916908373ffffffffffffffffffffffffffffffffffffffff16021790555050565b6107f3610bbd565b6107fb610bbd565b600085836000019073ffffffffffffffffffffffffffffffffffffffff16908173ffffffffffffffffffffffffffffffffffffffff168152505084836020019073ffffffffffffffffffffffffffffffffffffffff16908173ffffffffffffffffffffffffffffffffffffffff16815250508660000160008673ffffffffffffffffffffffffffffffffffffffff1673ffffffffffffffffffffffffffffffffffffffff168152602001908152602001600020608060405190810160405290816000820160009054906101000a900473ffffffffffffffffffffffffffffffffffffffff1673ffffffffffffffffffffffffffffffffffffffff1673ffffffffffffffffffffffffffffffffffffffff1681526020016001820160009054906101000a900473ffffffffffffffffffffffffffffffffffffffff1673ffffffffffffffffffffffffffffffffffffffff1673ffffffffffffffffffffffffffffffffffffffff168152602001600282018054806020026020016040519081016040528092919081815260200182805480156109eb57602002820191906000526020600020905b8160009054906101000a900473ffffffffffffffffffffffffffffffffffffffff1673ffffffffffffffffffffffffffffffffffffffff16815260200190600101908083116109a1575b50505050508152602001600382016040805190810160405290816000820160009054906101000a900473ffffffffffffffffffffffffffffffffffffffff1673ffffffffffffffffffffffffffffffffffffffff1673ffffffffffffffffffffffffffffffffffffffff168152602001600182015481525050815250509150858260400151836040015151815181101515610a8257fe5b9060200190602002019073ffffffffffffffffffffffffffffffffffffffff16908173ffffffffffffffffffffffffffffffffffffffff16815250508390508073ffffffffffffffffffffffffffffffffffffffff16630f89177886886000604051602001526040518363ffffffff167c0100000000000000000000000000000000000000000000000000000000028152600401808373ffffffffffffffffffffffffffffffffffffffff1673ffffffffffffffffffffffffffffffffffffffff1681526020018273ffffffffffffffffffffffffffffffffffffffff1673ffffffffffffffffffffffffffffffffffffffff16815260200192505050602060405180830381600087803b1515610b9857600080fd5b6102c65a03f11515610ba957600080fd5b505050604051805190505050505050505050565b60a060405190810160405280600073ffffffffffffffffffffffffffffffffffffffff168152602001600073ffffffffffffffffffffffffffffffffffffffff168152602001610c0b610c1e565b8152602001610c18610c32565b81525090565b602060405190810160405280600081525090565b6040805190810160405280600073ffffffffffffffffffffffffffffffffffffffff1681526020016000815250905600a165627a7a72305820008d8773e5a95c4e718bdcb63c2424a13df76ced6b5d6acacce56304745799910029",
  "source": "pragma solidity ^0.4.18;\n\nimport \"./rewards/Reward.sol\";\n\nimport '../node_modules/zeppelin-solidity/contracts/lifecycle/Pausable.sol';\nimport '../node_modules/zeppelin-solidity/contracts/token/StandardToken.sol';\n\n//import \"./rewards/RewardPayoffStrategy.sol\";\nimport \"./referral/ReferralTree.sol\";\n\n/**\n * A {Campaign} represents an advertising campaign.\n */\ncontract Campaign is Pausable {\n    using Reward for Reward.Payment;\n    using ReferralTree for ReferralTree.Tree;\n\n    /// Budget from which rewards are paid out\n    Reward.Payment budget;\n\n    /// The referral tree (k-ary tree)\n    ReferralTree.Tree vyralTree;\n\n    /// Which payoff method to use?\n    address payoffStrategy;\n\n    /// Campaign is always in one of the following states\n    enum CampaignState {\n        Ready,\n        Started,\n        Stopped,\n        Canceled,\n        Completed\n    }\n\n    // Current state of the contract\n    CampaignState public state;\n\n\n    /*\n     * Modifiers\n     */\n\n    modifier inState(CampaignState _state) {\n        require(state == _state);\n        _;\n    }\n\n    modifier notInState(CampaignState _state) {\n        require(state != _state);\n        _;\n    }\n\n    modifier onlyNonZeroAddress(address _a) {\n        require(_a != 0);\n        _;\n    }\n\n    modifier onlyOnReferral(address _referrer) {\n        require(getReferrer() != 0x0);\n        _;\n    }\n\n    modifier onlyIfFundsAvailable() {\n        require(getAvailableBalance() >= 0);\n        _;\n    }\n\n\n    /*\n     * Events\n     */\n\n    /// A new campaign was created\n    event CampaignCreated(address campaign);\n\n    /// A campaign's state changed\n    event CampaignStateChanged(address campaign, CampaignState previousState, CampaignState currentState);\n\n\n    /**\n     * Create a new campaign.\n     */\n    function Campaign(\n        address _token,\n        uint256 _budgetAmount,\n        address _payoffStrategy\n    )\n        public\n    {\n        budget = Reward.Payment({\n        token : StandardToken(_token),\n        amount : _budgetAmount\n        });\n\n        payoffStrategy = _payoffStrategy;\n\n        state = CampaignState.Ready;\n    }\n\n    /**\n     * Accept invitation and join contract.\n     */\n    function join(\n        address _referrer\n    )\n        public\n        inState(CampaignState.Started)\n        onlyNonZeroAddress(_referrer)\n        onlyOnReferral(_referrer)\n        onlyIfFundsAvailable()\n    {\n        vyralTree.addInvitee(msg.sender, _referrer, payoffStrategy);\n    }\n\n    /**\n     * Return referral key of caller.\n     */\n    function getReferrer()\n        constant\n        returns (address _referrer)\n    {\n        _referrer = vyralTree.getReferrerAddress(msg.sender);\n    }\n\n    // Update budget\n\n    /**\n     * @dev Returns Reward as a tuple.\n     */\n    function getBudget()\n        constant\n        returns (address _token, uint _amount)\n    {\n        _token = address(budget.token);\n        _amount = budget.amount;\n    }\n\n    /**\n     * @dev Return (budget - cost)\n     */\n    function getAvailableBalance()\n        constant\n        returns (uint _balance)\n    {\n        _balance = 56789;\n    }\n\n    /**\n     * Fallback. Don't send ETH to a campaign.\n     */\n    function() {\n    }\n}\n",
  "sourcePath": "/home/logan/Work/vyral/contracts/Campaign.sol",
  "compiler": {
    "name": "solc",
    "version": "0.4.18+commit.9cf6e910.Emscripten.clang"
  },
  "schemaVersion": "1.0.1",
  "updatedAt": "2017-11-10T18:37:07.791Z"
}