{
  "contractName": "Campaign",
  "abi": [
    {
      "constant": true,
      "inputs": [],
      "name": "getBudget",
      "outputs": [
        {
          "name": "_token",
          "type": "address"
        },
        {
          "name": "_amount",
          "type": "uint256"
        }
      ],
      "payable": false,
      "stateMutability": "view",
      "type": "function"
    },
    {
      "constant": false,
      "inputs": [
        {
          "name": "_referrer",
          "type": "address"
        }
      ],
      "name": "join",
      "outputs": [],
      "payable": false,
      "stateMutability": "nonpayable",
      "type": "function"
    },
    {
      "constant": true,
      "inputs": [],
      "name": "getReferrer",
      "outputs": [
        {
          "name": "_referrer",
          "type": "address"
        }
      ],
      "payable": false,
      "stateMutability": "view",
      "type": "function"
    },
    {
      "constant": true,
      "inputs": [],
      "name": "getAvailableBalance",
      "outputs": [
        {
          "name": "_balance",
          "type": "uint256"
        }
      ],
      "payable": false,
      "stateMutability": "view",
      "type": "function"
    },
    {
      "constant": true,
      "inputs": [],
      "name": "state",
      "outputs": [
        {
          "name": "",
          "type": "uint8"
        }
      ],
      "payable": false,
      "stateMutability": "view",
      "type": "function"
    },
    {
      "inputs": [
        {
          "name": "_token",
          "type": "address"
        },
        {
          "name": "_budgetAmount",
          "type": "uint256"
        },
        {
          "name": "_payoffStrategy",
          "type": "address"
        }
      ],
      "payable": false,
      "stateMutability": "nonpayable",
      "type": "constructor"
    },
    {
      "payable": false,
      "stateMutability": "nonpayable",
      "type": "fallback"
    },
    {
      "anonymous": false,
      "inputs": [
        {
          "indexed": false,
          "name": "campaign",
          "type": "address"
        }
      ],
      "name": "CampaignCreated",
      "type": "event"
    },
    {
      "anonymous": false,
      "inputs": [
        {
          "indexed": false,
          "name": "campaign",
          "type": "address"
        },
        {
          "indexed": false,
          "name": "previousState",
          "type": "uint8"
        },
        {
          "indexed": false,
          "name": "currentState",
          "type": "uint8"
        }
      ],
      "name": "CampaignStateChanged",
      "type": "event"
    }
  ],
  "bytecode": "0x6060604052341561000f57600080fd5b60405160608061099b8339810160405280805190602001909190805190602001909190805190602001909190505060408051908101604052808473ffffffffffffffffffffffffffffffffffffffff168152602001838152506000808201518160000160006101000a81548173ffffffffffffffffffffffffffffffffffffffff021916908373ffffffffffffffffffffffffffffffffffffffff1602179055506020820151816001015590505080600360006101000a81548173ffffffffffffffffffffffffffffffffffffffff021916908373ffffffffffffffffffffffffffffffffffffffff1602179055506000600360146101000a81548160ff0219169083600481111561011d57fe5b0217905550505050610867806101346000396000f30060606040526004361061006d576000357c0100000000000000000000000000000000000000000000000000000000900463ffffffff168063127714c71461007a57806328ffe6c8146100d65780635e52a00b1461010f578063809dab6a14610164578063c19d93fb1461018d575b341561007857600080fd5b005b341561008557600080fd5b61008d6101c4565b604051808373ffffffffffffffffffffffffffffffffffffffff1673ffffffffffffffffffffffffffffffffffffffff1681526020018281526020019250505060405180910390f35b34156100e157600080fd5b61010d600480803573ffffffffffffffffffffffffffffffffffffffff169060200190919050506101fa565b005b341561011a57600080fd5b6101226102db565b604051808273ffffffffffffffffffffffffffffffffffffffff1673ffffffffffffffffffffffffffffffffffffffff16815260200191505060405180910390f35b341561016f57600080fd5b6101776103a7565b6040518082815260200191505060405180910390f35b341561019857600080fd5b6101a06103b1565b604051808260048111156101b057fe5b60ff16815260200191505060405180910390f35b6000806000800160009054906101000a900473ffffffffffffffffffffffffffffffffffffffff16915060006001015490509091565b600180600481111561020857fe5b600360149054906101000a900460ff16600481111561022357fe5b14151561022f57600080fd5b8160008173ffffffffffffffffffffffffffffffffffffffff161415151561025657600080fd5b8260006102616102db565b73ffffffffffffffffffffffffffffffffffffffff161415151561028457600080fd5b600061028e6103a7565b1015151561029b57600080fd5b6102d53385600360009054906101000a900473ffffffffffffffffffffffffffffffffffffffff1660026103c4909392919063ffffffff16565b50505050565b6000600273__ReferralTree__________________________6347f6bc039091336000604051602001526040518363ffffffff167c0100000000000000000000000000000000000000000000000000000000028152600401808381526020018273ffffffffffffffffffffffffffffffffffffffff1673ffffffffffffffffffffffffffffffffffffffff1681526020019250505060206040518083038186803b151561038757600080fd5b6102c65a03f4151561039857600080fd5b50505060405180519050905090565b600061ddd5905090565b600360149054906101000a900460ff1681565b6103cc610796565b6103d4610796565b600085836000019073ffffffffffffffffffffffffffffffffffffffff16908173ffffffffffffffffffffffffffffffffffffffff168152505084836020019073ffffffffffffffffffffffffffffffffffffffff16908173ffffffffffffffffffffffffffffffffffffffff16815250508660000160008673ffffffffffffffffffffffffffffffffffffffff1673ffffffffffffffffffffffffffffffffffffffff168152602001908152602001600020608060405190810160405290816000820160009054906101000a900473ffffffffffffffffffffffffffffffffffffffff1673ffffffffffffffffffffffffffffffffffffffff1673ffffffffffffffffffffffffffffffffffffffff1681526020016001820160009054906101000a900473ffffffffffffffffffffffffffffffffffffffff1673ffffffffffffffffffffffffffffffffffffffff1673ffffffffffffffffffffffffffffffffffffffff168152602001600282018054806020026020016040519081016040528092919081815260200182805480156105c457602002820191906000526020600020905b8160009054906101000a900473ffffffffffffffffffffffffffffffffffffffff1673ffffffffffffffffffffffffffffffffffffffff168152602001906001019080831161057a575b50505050508152602001600382016040805190810160405290816000820160009054906101000a900473ffffffffffffffffffffffffffffffffffffffff1673ffffffffffffffffffffffffffffffffffffffff1673ffffffffffffffffffffffffffffffffffffffff16815260200160018201548152505081525050915085826040015183604001515181518110151561065b57fe5b9060200190602002019073ffffffffffffffffffffffffffffffffffffffff16908173ffffffffffffffffffffffffffffffffffffffff16815250508390508073ffffffffffffffffffffffffffffffffffffffff16630f89177886886000604051602001526040518363ffffffff167c0100000000000000000000000000000000000000000000000000000000028152600401808373ffffffffffffffffffffffffffffffffffffffff1673ffffffffffffffffffffffffffffffffffffffff1681526020018273ffffffffffffffffffffffffffffffffffffffff1673ffffffffffffffffffffffffffffffffffffffff16815260200192505050602060405180830381600087803b151561077157600080fd5b6102c65a03f1151561078257600080fd5b505050604051805190505050505050505050565b60a060405190810160405280600073ffffffffffffffffffffffffffffffffffffffff168152602001600073ffffffffffffffffffffffffffffffffffffffff1681526020016107e46107f7565b81526020016107f161080b565b81525090565b602060405190810160405280600081525090565b6040805190810160405280600073ffffffffffffffffffffffffffffffffffffffff1681526020016000815250905600a165627a7a723058200a6dda8612dea92ec4ecf5c8f95e771c87529f90a081048791e82365fa7d6ee80029",
  "source": "pragma solidity ^0.4.18;\n\nimport \"contracts/rewards/Reward.sol\";\nimport \"contracts/referral/ReferralTree.sol\";\nimport \"installed_contracts/tokens/contracts/HumanStandardToken.sol\";\n\n/**\n * A {Campaign} represents an advertising campaign.\n */\ncontract Campaign {\n    using Reward for Reward.Payment;\n    using ReferralTree for ReferralTree.Tree;\n\n    /// Budget from which rewards are paid out\n    Reward.Payment budget;\n\n    /// The referral tree (k-ary tree)\n    ReferralTree.Tree vyralTree;\n\n    /// Which payoff method to use?\n    address payoffStrategy;\n\n    /// Campaign is always in one of the following states\n    enum CampaignState {\n        Ready,\n        Started,\n        Stopped,\n        Canceled,\n        Completed\n    }\n\n    // Current state of the contract\n    CampaignState public state;\n\n\n    /*\n     * Modifiers\n     */\n\n    modifier inState(CampaignState _state) {\n        require(state == _state);\n        _;\n    }\n\n    modifier notInState(CampaignState _state) {\n        require(state != _state);\n        _;\n    }\n\n    modifier onlyNonZeroAddress(address _a) {\n        require(_a != 0);\n        _;\n    }\n\n    modifier onlyOnReferral(address _referrer) {\n        require(getReferrer() != 0x0);\n        _;\n    }\n\n    modifier onlyIfFundsAvailable() {\n        require(getAvailableBalance() >= 0);\n        _;\n    }\n\n\n    /*\n     * Events\n     */\n\n    /// A new campaign was created\n    event CampaignCreated(address campaign);\n\n    /// A campaign's state changed\n    event CampaignStateChanged(address campaign, CampaignState previousState, CampaignState currentState);\n\n\n    /**\n     * Create a new campaign.\n     */\n    function Campaign(\n        address _token,\n        uint256 _budgetAmount,\n        address _payoffStrategy\n    )\n        public\n    {\n        budget = Reward.Payment({\n            token: HumanStandardToken(_token),\n            amount: _budgetAmount\n        });\n\n        payoffStrategy = _payoffStrategy;\n\n        state = CampaignState.Ready;\n    }\n\n    /**\n     * Accept invitation and join contract.\n     */\n    function join(\n        address _referrer\n    )\n        public\n        inState(CampaignState.Started)\n        onlyNonZeroAddress(_referrer)\n        onlyOnReferral(_referrer)\n        onlyIfFundsAvailable()\n    {\n        vyralTree.addInvitee(msg.sender, _referrer, payoffStrategy);\n    }\n\n    /**\n     * Return referral key of caller.\n     */\n    function getReferrer()\n        constant\n        returns (address _referrer)\n    {\n        _referrer = vyralTree.getReferrerAddress(msg.sender);\n    }\n\n    // Update budget\n\n    /**\n     * @dev Returns Reward as a tuple.\n     */\n    function getBudget()\n        constant\n        returns (address _token, uint _amount)\n    {\n        _token = address(budget.token);\n        _amount = budget.amount;\n    }\n\n    /**\n     * @dev Return (budget - cost)\n     */\n    function getAvailableBalance()\n        constant\n        returns (uint _balance)\n    {\n        _balance = 56789;\n    }\n\n    /**\n     * Fallback. Don't send ETH to a campaign.\n     */\n    function() {\n    }\n}\n",
  "sourcePath": "/home/logan/Work/vyral/contracts/Campaign.sol",
  "compiler": {
    "name": "solc",
    "version": "0.4.18+commit.9cf6e910.Emscripten.clang"
  },
  "schemaVersion": "1.0.1",
  "updatedAt": "2017-11-14T19:45:07.638Z"
}