{
  "contractName": "Lockable",
  "abi": [
    {
      "constant": true,
      "inputs": [],
      "name": "locked",
      "outputs": [
        {
          "name": "",
          "type": "bool"
        }
      ],
      "payable": false,
      "stateMutability": "view",
      "type": "function"
    }
  ],
  "bytecode": "0x60606040523415600e57600080fd5b60ac8061001c6000396000f300606060405260043610603f576000357c0100000000000000000000000000000000000000000000000000000000900463ffffffff168063cf309012146044575b600080fd5b3415604e57600080fd5b6054606e565b604051808215151515815260200191505060405180910390f35b6000809054906101000a900460ff16815600a165627a7a72305820f5c01c4a94409d93e7664386a766cdc3fdb6354069d4e2c983532c4cb145741a0029",
  "source": "pragma solidity ^0.4.18;\n\n/**\n * @title Lockable\n * @dev Adds a locking property to a contract.\n */\ncontract Lockable {\n    bool public locked;\n\n    modifier onlyUnlocked() {\n        require(!locked);\n        _;\n    }\n\n    /// TODO: function lock(bool _locked) {\n    ///         locked = _locked;\n    ///        }\n\n}",
  "sourcePath": "/home/logan/Work/vyral/contracts/traits/Lockable.sol",
  "compiler": {
    "name": "solc",
    "version": "0.4.18+commit.9cf6e910.Emscripten.clang"
  },
  "schemaVersion": "1.0.1",
  "updatedAt": "2017-11-10T18:37:07.799Z"
}