{
  "contractName": "ReferralTree",
  "abi": [
    {
      "constant": true,
      "inputs": [
        {
          "name": "self",
          "type": "ReferralTree.Tree storage"
        },
        {
          "name": "_inviteeAddress",
          "type": "address"
        }
      ],
      "name": "getReferrerAddress",
      "outputs": [
        {
          "name": "_referrerAddress",
          "type": "address"
        }
      ],
      "payable": false,
      "stateMutability": "view",
      "type": "function"
    },
    {
      "constant": true,
      "inputs": [
        {
          "name": "self",
          "type": "ReferralTree.Tree storage"
        },
        {
          "name": "node",
          "type": "address"
        }
      ],
      "name": "degreeOf",
      "outputs": [
        {
          "name": "",
          "type": "uint256"
        }
      ],
      "payable": false,
      "stateMutability": "view",
      "type": "function"
    }
  ],
  "bytecode": "0x6060604052341561000f57600080fd5b61044b8061001e6000396000f30060606040526004361061004c576000357c0100000000000000000000000000000000000000000000000000000000900463ffffffff16806347f6bc0314610051578063632300e7146100c8575b600080fd5b610086600480803590602001909190803573ffffffffffffffffffffffffffffffffffffffff16906020019091905050610113565b604051808273ffffffffffffffffffffffffffffffffffffffff1673ffffffffffffffffffffffffffffffffffffffff16815260200191505060405180910390f35b6100fd600480803590602001909190803573ffffffffffffffffffffffffffffffffffffffff16906020019091905050610328565b6040518082815260200191505060405180910390f35b600061011d61037a565b8360000160008473ffffffffffffffffffffffffffffffffffffffff1673ffffffffffffffffffffffffffffffffffffffff168152602001908152602001600020608060405190810160405290816000820160009054906101000a900473ffffffffffffffffffffffffffffffffffffffff1673ffffffffffffffffffffffffffffffffffffffff1673ffffffffffffffffffffffffffffffffffffffff1681526020016001820160009054906101000a900473ffffffffffffffffffffffffffffffffffffffff1673ffffffffffffffffffffffffffffffffffffffff1673ffffffffffffffffffffffffffffffffffffffff1681526020016002820180548060200260200160405190810160405280929190818152602001828054801561029b57602002820191906000526020600020905b8160009054906101000a900473ffffffffffffffffffffffffffffffffffffffff1673ffffffffffffffffffffffffffffffffffffffff1681526020019060010190808311610251575b50505050508152602001600382016040805190810160405290816000820160009054906101000a900473ffffffffffffffffffffffffffffffffffffffff1673ffffffffffffffffffffffffffffffffffffffff1673ffffffffffffffffffffffffffffffffffffffff168152602001600182015481525050815250509050806020015191505092915050565b60008260000160008373ffffffffffffffffffffffffffffffffffffffff1673ffffffffffffffffffffffffffffffffffffffff16815260200190815260200160002060020180549050905092915050565b60a060405190810160405280600073ffffffffffffffffffffffffffffffffffffffff168152602001600073ffffffffffffffffffffffffffffffffffffffff1681526020016103c86103db565b81526020016103d56103ef565b81525090565b602060405190810160405280600081525090565b6040805190810160405280600073ffffffffffffffffffffffffffffffffffffffff1681526020016000815250905600a165627a7a72305820e54371f4635bedb006ebcc47f4b7184bd0f22cce545bd49646b5f94f8a4705d60029",
  "source": "pragma solidity ^0.4.18;\n\nimport \"../rewards/Reward.sol\";\nimport \"../rewards/RewardPayoffStrategy.sol\";\n\n/**\n * A ReferralTree is a diffusion graph of all nodes representing campaign participants.\n * Each invitee is assigned a referral tree after accepting an invitation. Following is\n * an example difussion graph.\n *\n *                                                                  +---+\n *                                                             +--> | 9 |\n *                                                             |    +---+\n *                                                             |\n *                                                             |    +---+\n *                                                 +---+       +--> |10 |\n *                                            +--> | 4 |       |    +---+\n *                                            |    +---+    +--+\n *                                            |  (inactive) |  |    +---+\n *                                            |             |  +--> |11 |\n *                                            |    +---+    |  |    +---+\n *                                       +-------> | 5 +----+  |\n *                                       |    |    +---+       |    +---+\n *                              +----    |    |                +--> |12 |\n *                        +-->  | 1 +----+    |                     +---+\n *                        |     +---+         |    +---+\n *                        |                   +--> | 6 | +------------------>\n *                        |                        +---+\n *               +---+    |     +---+\n *               | 0 | +----->  | 2 |\n *               +---+    |     +---+\n *                        |   (inactive)\n *                        |                        +---+\n *                        |     +---+         +--> | 7 |\n *                        +-->  | 3 +---------+    +---+\n *                              +---+         |\n *                                            |    +---+\n *                                            +--> | 8 |\n *                                                 +---+\n *\n */\nlibrary ReferralTree {\n    using Reward for Reward.Payment;\n\n    /**\n     * @dev A user in a referral graph\n     */\n    struct VyralNode {\n        /// Current user's address\n        address node;\n        /// This node was referred by...\n        address referrer;\n        /// Invitees of this node\n        address[] invitees;\n        /// Reward accumulated\n        Reward.Payment payment;\n    }\n\n    /**\n     * @dev A collection of seed nodes. These are nodes that don't have a referrer.\n     */\n    struct Tree { // TODO: Rename? Suggestions: Root\n        mapping (address => VyralNode) nodes;\n    }\n\n    /**\n     * @dev Returns the degree of a node\n     */\n    function degreeOf (\n        Tree storage self,\n        address node\n    )\n        constant\n        returns (uint)\n    {\n        return self.nodes[node].invitees.length;\n    }\n\n    /**\n     * @dev Creates a new node representing an invitee and adds to a node's list of invitees.\n     */\n    function addInvitee (\n        Tree storage self,\n        address _invitee,\n        address _referrer,\n        address _payoffStrategy\n    )\n        internal\n    {\n        VyralNode memory inviteeNode;\n        inviteeNode.node = _invitee;\n        inviteeNode.referrer = _referrer;\n\n        VyralNode memory referrerNode = self.nodes[_referrer];\n        referrerNode.invitees[referrerNode.invitees.length] = _invitee;\n\n        RewardPayoffStrategy rps = RewardPayoffStrategy(_payoffStrategy);\n        rps.payoff(_referrer, _invitee);\n    }\n\n    /**\n     * @dev Find a referral key by an address.\n     */\n    function splitRewardWithReferrer (\n        Tree storage self,\n        address _address,\n        uint256 _referrerReward,\n        uint256 _inviteeReward\n    )\n        internal\n        returns (bytes32 _referralKey)\n    {\n        VyralNode storage inviteeNode = self.nodes[_address];\n        inviteeNode.payment.add(_address, _inviteeReward);\n\n        VyralNode storage referrerNode = self.nodes[inviteeNode.referrer];\n        referrerNode.payment.add(_address, _referrerReward);\n    }\n\n    /**\n     * @dev Find referrer of the given invitee.\n     */\n    function getReferrerAddress (\n        Tree storage self,\n        address _inviteeAddress\n    )\n        constant\n        returns (address _referrerAddress)\n    {\n        VyralNode memory node = self.nodes[_inviteeAddress];\n        _referrerAddress = node.referrer;\n    }\n}\n",
  "sourcePath": "/home/vkandy/workspaces/digistrat/vyral/contracts/referral/ReferralTree.sol",
  "compiler": {
    "name": "solc",
    "version": "0.4.18+commit.9cf6e910.Emscripten.clang"
  },
  "schemaVersion": "1.0.1",
  "updatedAt": "2017-11-12T04:47:57.704Z"
}