{
  "contractName": "Reward",
  "abi": [
    {
      "constant": false,
      "inputs": [
        {
          "name": "self",
          "type": "Reward.Payment storage"
        },
        {
          "name": "token",
          "type": "address"
        },
        {
          "name": "amount",
          "type": "uint256"
        }
      ],
      "name": "add",
      "outputs": [],
      "payable": false,
      "stateMutability": "nonpayable",
      "type": "function"
    }
  ],
  "bytecode": "0x6060604052341561000f57600080fd5b61015b8061001e6000396000f300606060405260043610610041576000357c0100000000000000000000000000000000000000000000000000000000900463ffffffff1680638bf2670a14610046575b600080fd5b610084600480803590602001909190803573ffffffffffffffffffffffffffffffffffffffff16906020019091908035906020019091905050610086565b005b8173ffffffffffffffffffffffffffffffffffffffff168360000160009054906101000a900473ffffffffffffffffffffffffffffffffffffffff1673ffffffffffffffffffffffffffffffffffffffff161415156100e457600080fd5b600081101515156100f457600080fd5b61010b81846001015461011190919063ffffffff16565b50505050565b600080828401905083811015151561012557fe5b80915050929150505600a165627a7a723058202ed3ecbec02e73044a611352e5a9e470ef01317d13f8603308c10bcfdcd137fc0029",
  "source": "pragma solidity ^0.4.18;\n\nimport '../../node_modules/zeppelin-solidity/contracts/math/SafeMath.sol';\nimport '../../node_modules/zeppelin-solidity/contracts/token/StandardToken.sol';\n\n/**\n * @dev Represents an incentive for joining a campaign.\n */\nlibrary Reward {\n    using SafeMath for uint256;\n\n    /**\n     * @dev A {Payment} represents the value of a referral. This is the incentive offered by a campaign to both.\n     */\n    struct Payment {\n        /// Token as payment\n        StandardToken token;\n        /// The amount being offered\n        uint256 amount;\n    }\n\n    /**\n     * @dev Returns sum of two payments if their units are same.\n     */\n    function add(Payment storage self, address token, uint256 amount)\n        public\n    {\n        require(self.token == token);\n        require(amount >= 0); // TODO: Is this check needed since a uint256 cannot be neg??\n\n        self.amount.add(amount);\n    }\n\n    /**\n     * @dev Won't accept ETH\n     */\n    // function Reward() {\n    // }\n\n}\n",
  "sourcePath": "/home/logan/Work/vyral/contracts/rewards/Reward.sol",
  "compiler": {
    "name": "solc",
    "version": "0.4.18+commit.9cf6e910.Emscripten.clang"
  },
  "schemaVersion": "1.0.1",
  "updatedAt": "2017-11-10T18:37:07.799Z"
}