{
  "contractName": "Reward",
  "abi": [
    {
      "constant": false,
      "inputs": [
        {
          "name": "self",
          "type": "Reward.Payment storage"
        },
        {
          "name": "token",
          "type": "address"
        },
        {
          "name": "amount",
          "type": "uint256"
        }
      ],
      "name": "add",
      "outputs": [],
      "payable": false,
      "stateMutability": "nonpayable",
      "type": "function"
    }
  ],
  "bytecode": "0x6060604052341561000f57600080fd5b6101228061001e6000396000f300606060405260043610603f576000357c0100000000000000000000000000000000000000000000000000000000900463ffffffff1680638bf2670a146044575b600080fd5b6080600480803590602001909190803573ffffffffffffffffffffffffffffffffffffffff169060200190919080359060200190919050506082565b005b8173ffffffffffffffffffffffffffffffffffffffff168360000160009054906101000a900473ffffffffffffffffffffffffffffffffffffffff1673ffffffffffffffffffffffffffffffffffffffff1614151560df57600080fd5b8083600101600082825401925050819055505050505600a165627a7a72305820c66cabea95c90979cee6ed908c2533bffbb2c321eb2215720f82e355da95c6c50029",
  "source": "pragma solidity ^0.4.18;\n\nimport \"installed_contracts/tokens/contracts/HumanStandardToken.sol\";\n\n/**\n * @dev Represents an incentive for joining a campaign.\n */\nlibrary Reward {\n\n    /**\n     * @dev A {Payment} represents the value of a referral. This is the incentive offered by a campaign to both.\n     */\n    struct Payment {\n        /// Token as payment\n        HumanStandardToken token;\n        /// The amount being offered\n        uint256 amount;\n    }\n\n    /**\n     * @dev Returns sum of two payments if their units are same.\n     */\n    function add(Payment storage self, address token, uint256 amount)\n        public\n    {\n        require(self.token == token);\n\n        self.amount += amount;\n    }\n\n    /**\n     * @dev Won't accept ETH\n     */\n    // function Reward() {\n    // }\n\n}\n",
  "sourcePath": "contracts/rewards/Reward.sol",
  "compiler": {
    "name": "solc",
    "version": "0.4.18+commit.9cf6e910.Emscripten.clang"
  },
  "schemaVersion": "1.0.1",
  "updatedAt": "2017-11-14T19:45:07.644Z"
}