{
  "contractName": "TieredPayoff",
  "abi": [
    {
      "constant": false,
      "inputs": [
        {
          "name": "referrer",
          "type": "address"
        },
        {
          "name": "invitee",
          "type": "address"
        }
      ],
      "name": "payoff",
      "outputs": [
        {
          "name": "",
          "type": "uint256"
        }
      ],
      "payable": false,
      "stateMutability": "nonpayable",
      "type": "function"
    },
    {
      "constant": true,
      "inputs": [
        {
          "name": "_referrals",
          "type": "uint8"
        }
      ],
      "name": "getBonusPercentage",
      "outputs": [
        {
          "name": "",
          "type": "uint256"
        }
      ],
      "payable": false,
      "stateMutability": "view",
      "type": "function"
    },
    {
      "constant": true,
      "inputs": [
        {
          "name": "",
          "type": "uint8"
        }
      ],
      "name": "tiers",
      "outputs": [
        {
          "name": "",
          "type": "uint8"
        }
      ],
      "payable": false,
      "stateMutability": "view",
      "type": "function"
    },
    {
      "inputs": [],
      "payable": false,
      "stateMutability": "nonpayable",
      "type": "constructor"
    }
  ],
  "bytecode": "0x6060604052341561000f57600080fd5b6101d48061001e6000396000f300606060405260043610610057576000357c0100000000000000000000000000000000000000000000000000000000900463ffffffff1680630f8917781461005c57806352656f8d146100c8578063d1d7997414610102575b600080fd5b341561006757600080fd5b6100b2600480803573ffffffffffffffffffffffffffffffffffffffff1690602001909190803573ffffffffffffffffffffffffffffffffffffffff16906020019091905050610142565b6040518082815260200191505060405180910390f35b34156100d357600080fd5b6100ec600480803560ff1690602001909190505061014d565b6040518082815260200191505060405180910390f35b341561010d57600080fd5b610126600480803560ff16906020019091905050610188565b604051808260ff1660ff16815260200191505060405180910390f35b600080905092915050565b6000808260ff1614156101635760009050610183565b601b8260ff161015156101795760219050610183565b6006820160ff1690505b919050565b60006020528060005260406000206000915054906101000a900460ff16815600a165627a7a7230582086cdf8dec777e9d417e229c50fc431107dc36a8cedf32f1dfcaa46ee12a680350029",
  "source": "pragma solidity ^0.4.18;\n\nimport \"contracts/referral/ReferralTree.sol\";\nimport \"contracts/rewards/RewardPayoffStrategy.sol\";\n\nimport 'contracts/math/SafeMath.sol';\n\n/**\n * Bonus tiers\n * 1 Vyral Referral - 7% bonus\n * 2 Vyral Referrals - 8% bonus\n * 3 Vyral Referrals - 9% bonus\n * 4 Vyral Referrals - 10% bonus\n * 5 Vyral Referrals - 11% bonus\n * 6 Vyral Referrals - 12% bonus\n * 7 Vyral Referrals - 13% bonus\n * 8 Vyral Referrals - 14% bonus\n * 9 Vyral Referrals - 15% bonus\n * 10 Vyral Referrals - 16% bonus\n * 11 Vyral Referrals - 17% bonus\n * 12 Vyral Referrals - 18% bonus\n * 13 Vyral Referrals - 19% bonus\n * 14 Vyral Referrals - 20% bonus\n * 15 Vyral Referrals - 21% bonus\n * 16 Vyral Referrals - 22% bonus\n * 17 Vyral Referrals - 23% bonus\n * 18 Vyral Referrals - 24% bonus\n * 19 Vyral Referrals - 25% bonus\n * 20 Vyral Referrals - 26% bonus\n * 21 Vyral Referrals - 27% bonus\n * 22 Vyral Referrals - 28% bonus\n * 23 Vyral Referrals - 29% bonus\n * 24 Vyral Referrals - 30% bonus\n * 25 Vyral Referrals - 31% bonus\n * 26 Vyral Referrals - 32% bonus\n * 27 Vyral Referrals - 33% bonus\n */\ncontract TieredPayoff is RewardPayoffStrategy {\n    using SafeMath for uint256;\n\n    mapping (uint8 => uint8) public tiers;\n\n    function TieredPayoff() {\n    }\n\n    function payoff(\n        address referrer,\n        address invitee\n    )\n        public\n        returns (uint256)\n    {\n        return 0;\n    }\n\n    /**\n     * Returns bonus percentage for a given number of referrals\n     * based on comments above.\n     */\n    function getBonusPercentage(\n        uint8 _referrals\n    )\n        public constant returns (uint256)\n    {\n        if (_referrals == 0) {\n            return 0;\n        }\n        if (_referrals >= 27) {\n            return 33;\n        }\n        return _referrals + 6;\n    }\n}\n",
  "sourcePath": "/home/logan/Work/vyral/contracts/rewards/TieredPayoff.sol",
  "compiler": {
    "name": "solc",
    "version": "0.4.18+commit.9cf6e910.Emscripten.clang"
  },
  "schemaVersion": "1.0.1",
  "updatedAt": "2017-11-14T19:45:07.644Z"
}