{
  "contractName": "VyralSale",
  "abi": [
    {
      "constant": true,
      "inputs": [],
      "name": "saleBeginsAt",
      "outputs": [
        {
          "name": "",
          "type": "uint256"
        }
      ],
      "payable": false,
      "stateMutability": "view",
      "type": "function"
    },
    {
      "constant": true,
      "inputs": [],
      "name": "SALE_MIN",
      "outputs": [
        {
          "name": "",
          "type": "uint256"
        }
      ],
      "payable": false,
      "stateMutability": "view",
      "type": "function"
    },
    {
      "constant": true,
      "inputs": [],
      "name": "SHARES_PER_ETH",
      "outputs": [
        {
          "name": "",
          "type": "uint256"
        }
      ],
      "payable": false,
      "stateMutability": "view",
      "type": "function"
    },
    {
      "constant": true,
      "inputs": [],
      "name": "saleDuration",
      "outputs": [
        {
          "name": "",
          "type": "uint256"
        }
      ],
      "payable": false,
      "stateMutability": "view",
      "type": "function"
    },
    {
      "constant": true,
      "inputs": [],
      "name": "weiRaised",
      "outputs": [
        {
          "name": "",
          "type": "uint256"
        }
      ],
      "payable": false,
      "stateMutability": "view",
      "type": "function"
    },
    {
      "constant": false,
      "inputs": [],
      "name": "finalize",
      "outputs": [],
      "payable": false,
      "stateMutability": "nonpayable",
      "type": "function"
    },
    {
      "constant": true,
      "inputs": [],
      "name": "wallet",
      "outputs": [
        {
          "name": "",
          "type": "address"
        }
      ],
      "payable": false,
      "stateMutability": "view",
      "type": "function"
    },
    {
      "constant": true,
      "inputs": [],
      "name": "saleFinalizedAt",
      "outputs": [
        {
          "name": "",
          "type": "uint256"
        }
      ],
      "payable": false,
      "stateMutability": "view",
      "type": "function"
    },
    {
      "constant": true,
      "inputs": [],
      "name": "VYRAL_TEAM",
      "outputs": [
        {
          "name": "",
          "type": "address"
        }
      ],
      "payable": false,
      "stateMutability": "view",
      "type": "function"
    },
    {
      "constant": true,
      "inputs": [
        {
          "name": "",
          "type": "address"
        }
      ],
      "name": "purchases",
      "outputs": [
        {
          "name": "",
          "type": "uint256"
        }
      ],
      "payable": false,
      "stateMutability": "view",
      "type": "function"
    },
    {
      "constant": true,
      "inputs": [],
      "name": "owner",
      "outputs": [
        {
          "name": "",
          "type": "address"
        }
      ],
      "payable": false,
      "stateMutability": "view",
      "type": "function"
    },
    {
      "constant": true,
      "inputs": [],
      "name": "TOTAL_SUPPLY",
      "outputs": [
        {
          "name": "",
          "type": "uint256"
        }
      ],
      "payable": false,
      "stateMutability": "view",
      "type": "function"
    },
    {
      "constant": true,
      "inputs": [],
      "name": "ONE_MILLION",
      "outputs": [
        {
          "name": "",
          "type": "uint256"
        }
      ],
      "payable": false,
      "stateMutability": "view",
      "type": "function"
    },
    {
      "constant": true,
      "inputs": [],
      "name": "SALE_MAX",
      "outputs": [
        {
          "name": "",
          "type": "uint256"
        }
      ],
      "payable": false,
      "stateMutability": "view",
      "type": "function"
    },
    {
      "constant": true,
      "inputs": [],
      "name": "VYRAL_PARTNERSHIPS",
      "outputs": [
        {
          "name": "",
          "type": "address"
        }
      ],
      "payable": false,
      "stateMutability": "view",
      "type": "function"
    },
    {
      "constant": false,
      "inputs": [
        {
          "name": "newOwner",
          "type": "address"
        }
      ],
      "name": "transferOwnership",
      "outputs": [],
      "payable": false,
      "stateMutability": "nonpayable",
      "type": "function"
    },
    {
      "constant": true,
      "inputs": [],
      "name": "saleStatus",
      "outputs": [
        {
          "name": "",
          "type": "uint8"
        }
      ],
      "payable": false,
      "stateMutability": "view",
      "type": "function"
    },
    {
      "constant": true,
      "inputs": [],
      "name": "token",
      "outputs": [
        {
          "name": "",
          "type": "address"
        }
      ],
      "payable": false,
      "stateMutability": "view",
      "type": "function"
    },
    {
      "inputs": [
        {
          "name": "_budgetAmount",
          "type": "uint256"
        },
        {
          "name": "_payoffStrategy",
          "type": "address"
        }
      ],
      "payable": false,
      "stateMutability": "nonpayable",
      "type": "constructor"
    },
    {
      "payable": true,
      "stateMutability": "payable",
      "type": "fallback"
    },
    {
      "anonymous": false,
      "inputs": [
        {
          "indexed": false,
          "name": "buyer",
          "type": "address"
        },
        {
          "indexed": false,
          "name": "amount",
          "type": "uint256"
        }
      ],
      "name": "LogPurchase",
      "type": "event"
    },
    {
      "anonymous": false,
      "inputs": [
        {
          "indexed": true,
          "name": "previousOwner",
          "type": "address"
        },
        {
          "indexed": true,
          "name": "newOwner",
          "type": "address"
        }
      ],
      "name": "OwnershipTransferred",
      "type": "event"
    }
  ],
  "bytecode": "0x60606040526000600160006101000a81548173ffffffffffffffffffffffffffffffffffffffff021916908373ffffffffffffffffffffffffffffffffffffffff1602179055506000600260006101000a81548173ffffffffffffffffffffffffffffffffffffffff021916908373ffffffffffffffffffffffffffffffffffffffff1602179055506000600355635a209b8060045562278d006005553415620000a857600080fd5b60405160408062003ab983398101604052808051906020019091908051906020019091905050336000806101000a81548173ffffffffffffffffffffffffffffffffffffffff021916908373ffffffffffffffffffffffffffffffffffffffff1602179055506012600a0a632e5bf27102620001236200043c565b80828152602001915050604051809103906000f08015156200014457600080fd5b600960006101000a81548173ffffffffffffffffffffffffffffffffffffffff021916908373ffffffffffffffffffffffffffffffffffffffff160217905550600960009054906101000a900473ffffffffffffffffffffffffffffffffffffffff1673ffffffffffffffffffffffffffffffffffffffff1663a9059cbb30600960009054906101000a900473ffffffffffffffffffffffffffffffffffffffff1673ffffffffffffffffffffffffffffffffffffffff166318160ddd6000604051602001526040518163ffffffff167c0100000000000000000000000000000000000000000000000000000000028152600401602060405180830381600087803b15156200025257600080fd5b6102c65a03f115156200026457600080fd5b505050604051805190506000604051602001526040518363ffffffff167c0100000000000000000000000000000000000000000000000000000000028152600401808373ffffffffffffffffffffffffffffffffffffffff1673ffffffffffffffffffffffffffffffffffffffff16815260200182815260200192505050602060405180830381600087803b1515620002fc57600080fd5b6102c65a03f115156200030e57600080fd5b5050506040518051905050600960009054906101000a900473ffffffffffffffffffffffffffffffffffffffff168282620003486200044d565b808473ffffffffffffffffffffffffffffffffffffffff1673ffffffffffffffffffffffffffffffffffffffff1681526020018381526020018273ffffffffffffffffffffffffffffffffffffffff1673ffffffffffffffffffffffffffffffffffffffff1681526020019350505050604051809103906000f0801515620003cf57600080fd5b600a60006101000a81548173ffffffffffffffffffffffffffffffffffffffff021916908373ffffffffffffffffffffffffffffffffffffffff1602179055506000600260146101000a81548160ff021916908360038111156200042f57fe5b021790555050506200045e565b604051611667806200163583390190565b604051610e1d8062002c9c83390190565b6111c7806200046e6000396000f3006060604052600436106100fc576000357c0100000000000000000000000000000000000000000000000000000000900463ffffffff16806306cbb97614610107578063136e1b5f14610130578063222c0b11146101595780633711d9fb146101825780634042b66f146101ab5780634bb278f3146101d4578063521eb273146101e9578063596672041461023e5780637806e75614610267578063842a77d3146102bc5780638da5cb5b14610309578063902d55a51461035e5780639869b73614610387578063a31317a1146103b0578063d3a0926e146103d9578063f2fde38b1461042e578063f9020e3314610467578063fc0c546a1461049e575b610105336104f3565b005b341561011257600080fd5b61011a6108d5565b6040518082815260200191505060405180910390f35b341561013b57600080fd5b6101436108db565b6040518082815260200191505060405180910390f35b341561016457600080fd5b61016c6108e7565b6040518082815260200191505060405180910390f35b341561018d57600080fd5b6101956108ed565b6040518082815260200191505060405180910390f35b34156101b657600080fd5b6101be6108f3565b6040518082815260200191505060405180910390f35b34156101df57600080fd5b6101e76108f9565b005b34156101f457600080fd5b6101fc610ec3565b604051808273ffffffffffffffffffffffffffffffffffffffff1673ffffffffffffffffffffffffffffffffffffffff16815260200191505060405180910390f35b341561024957600080fd5b610251610ee9565b6040518082815260200191505060405180910390f35b341561027257600080fd5b61027a610eef565b604051808273ffffffffffffffffffffffffffffffffffffffff1673ffffffffffffffffffffffffffffffffffffffff16815260200191505060405180910390f35b34156102c757600080fd5b6102f3600480803573ffffffffffffffffffffffffffffffffffffffff16906020019091905050610f15565b6040518082815260200191505060405180910390f35b341561031457600080fd5b61031c610f2d565b604051808273ffffffffffffffffffffffffffffffffffffffff1673ffffffffffffffffffffffffffffffffffffffff16815260200191505060405180910390f35b341561036957600080fd5b610371610f52565b6040518082815260200191505060405180910390f35b341561039257600080fd5b61039a610f60565b6040518082815260200191505060405180910390f35b34156103bb57600080fd5b6103c3610f6d565b6040518082815260200191505060405180910390f35b34156103e457600080fd5b6103ec610f7b565b604051808273ffffffffffffffffffffffffffffffffffffffff1673ffffffffffffffffffffffffffffffffffffffff16815260200191505060405180910390f35b341561043957600080fd5b610465600480803573ffffffffffffffffffffffffffffffffffffffff16906020019091905050610fa1565b005b341561047257600080fd5b61047a6110f6565b6040518082600381111561048a57fe5b60ff16815260200191505060405180910390f35b34156104a957600080fd5b6104b1611109565b604051808273ffffffffffffffffffffffffffffffffffffffff1673ffffffffffffffffffffffffffffffffffffffff16815260200191505060405180910390f35b6000806000806000690a968163f0a57b40000061051b3460035461112f90919063ffffffff16565b1115151561052857600080fd5b670de0b6b3a7640000341015151561053f57600080fd5b3494506112d985029350600860009054906101000a900473ffffffffffffffffffffffffffffffffffffffff1673ffffffffffffffffffffffffffffffffffffffff166108fc349081150290604051600060405180830381858888f1935050505015156105ab57600080fd5b6000841115156105ba57600080fd5b6112d9348115156105c757fe5b06925082340391506112d9828115156105dc57fe5b049050600960009054906101000a900473ffffffffffffffffffffffffffffffffffffffff1673ffffffffffffffffffffffffffffffffffffffff166370a08231306000604051602001526040518263ffffffff167c0100000000000000000000000000000000000000000000000000000000028152600401808273ffffffffffffffffffffffffffffffffffffffff1673ffffffffffffffffffffffffffffffffffffffff168152602001915050602060405180830381600087803b15156106a457600080fd5b6102c65a03f115156106b557600080fd5b5050506040518051905081111515156106cd57600080fd5b6000831115610717573373ffffffffffffffffffffffffffffffffffffffff166108fc849081150290604051600060405180830381858888f19350505050151561071657600080fd5b5b600860009054906101000a900473ffffffffffffffffffffffffffffffffffffffff1673ffffffffffffffffffffffffffffffffffffffff166108fc839081150290604051600060405180830381858888f19350505050151561077957600080fd5b600960009054906101000a900473ffffffffffffffffffffffffffffffffffffffff1673ffffffffffffffffffffffffffffffffffffffff1663a9059cbb87836000604051602001526040518363ffffffff167c0100000000000000000000000000000000000000000000000000000000028152600401808373ffffffffffffffffffffffffffffffffffffffff1673ffffffffffffffffffffffffffffffffffffffff16815260200182815260200192505050602060405180830381600087803b151561084657600080fd5b6102c65a03f1151561085757600080fd5b50505060405180519050507fd4d72ecb9cb4a8f0288080b5a70183dae4a8b3415f6aacd780f148c8e4cbe3ea8686604051808373ffffffffffffffffffffffffffffffffffffffff1673ffffffffffffffffffffffffffffffffffffffff1681526020018281526020019250505060405180910390a1505050505050565b60045481565b670de0b6b3a764000081565b6112d981565b60055481565b60035481565b60008060008060008060009054906101000a900473ffffffffffffffffffffffffffffffffffffffff1673ffffffffffffffffffffffffffffffffffffffff163373ffffffffffffffffffffffffffffffffffffffff1614151561095c57600080fd5b600280600381111561096a57fe5b600260149054906101000a900460ff16600381111561098557fe5b14151561099157600080fd5b600380600381111561099f57fe5b600260149054906101000a900460ff1660038111156109ba57fe5b141515156109c757600080fd5b6109de6112d960035461114d90919063ffffffff16565b9650600960009054906101000a900473ffffffffffffffffffffffffffffffffffffffff1673ffffffffffffffffffffffffffffffffffffffff166394bf804d88600860009054906101000a900473ffffffffffffffffffffffffffffffffffffffff166000604051602001526040518363ffffffff167c0100000000000000000000000000000000000000000000000000000000028152600401808381526020018273ffffffffffffffffffffffffffffffffffffffff1673ffffffffffffffffffffffffffffffffffffffff16815260200192505050602060405180830381600087803b1515610acf57600080fd5b6102c65a03f11515610ae057600080fd5b5050506040518051905050610b136103e8610b05608f8a61114d90919063ffffffff16565b61118090919063ffffffff16565b9550610b3e6103e8610b3061011e8a61114d90919063ffffffff16565b61118090919063ffffffff16565b9450610b696103e8610b5b6101ad8a61114d90919063ffffffff16565b61118090919063ffffffff16565b9350600960009054906101000a900473ffffffffffffffffffffffffffffffffffffffff1673ffffffffffffffffffffffffffffffffffffffff1663a9059cbb600160009054906101000a900473ffffffffffffffffffffffffffffffffffffffff16886000604051602001526040518363ffffffff167c0100000000000000000000000000000000000000000000000000000000028152600401808373ffffffffffffffffffffffffffffffffffffffff1673ffffffffffffffffffffffffffffffffffffffff16815260200182815260200192505050602060405180830381600087803b1515610c5a57600080fd5b6102c65a03f11515610c6b57600080fd5b5050506040518051905050600960009054906101000a900473ffffffffffffffffffffffffffffffffffffffff1673ffffffffffffffffffffffffffffffffffffffff1663a9059cbb600260009054906101000a900473ffffffffffffffffffffffffffffffffffffffff16886000604051602001526040518363ffffffff167c0100000000000000000000000000000000000000000000000000000000028152600401808373ffffffffffffffffffffffffffffffffffffffff1673ffffffffffffffffffffffffffffffffffffffff16815260200182815260200192505050602060405180830381600087803b1515610d6557600080fd5b6102c65a03f11515610d7657600080fd5b5050506040518051905050600960009054906101000a900473ffffffffffffffffffffffffffffffffffffffff1673ffffffffffffffffffffffffffffffffffffffff1663a9059cbb600a60009054906101000a900473ffffffffffffffffffffffffffffffffffffffff16876000604051602001526040518363ffffffff167c0100000000000000000000000000000000000000000000000000000000028152600401808373ffffffffffffffffffffffffffffffffffffffff1673ffffffffffffffffffffffffffffffffffffffff16815260200182815260200192505050602060405180830381600087803b1515610e7057600080fd5b6102c65a03f11515610e8157600080fd5b50505060405180519050508392506003600260146101000a81548160ff02191690836003811115610eae57fe5b02179055504260068190555050505050505050565b600860009054906101000a900473ffffffffffffffffffffffffffffffffffffffff1681565b60065481565b600160009054906101000a900473ffffffffffffffffffffffffffffffffffffffff1681565b60076020528060005260406000206000915090505481565b6000809054906101000a900473ffffffffffffffffffffffffffffffffffffffff1681565b6012600a0a632e5bf2710281565b6012600a0a620f42400281565b690a968163f0a57b40000081565b600260009054906101000a900473ffffffffffffffffffffffffffffffffffffffff1681565b6000809054906101000a900473ffffffffffffffffffffffffffffffffffffffff1673ffffffffffffffffffffffffffffffffffffffff163373ffffffffffffffffffffffffffffffffffffffff16141515610ffc57600080fd5b600073ffffffffffffffffffffffffffffffffffffffff168173ffffffffffffffffffffffffffffffffffffffff161415151561103857600080fd5b8073ffffffffffffffffffffffffffffffffffffffff166000809054906101000a900473ffffffffffffffffffffffffffffffffffffffff1673ffffffffffffffffffffffffffffffffffffffff167f8be0079c531659141344cd1fd0a4f28419497f9722a3daafe3b4186f6b6457e060405160405180910390a3806000806101000a81548173ffffffffffffffffffffffffffffffffffffffff021916908373ffffffffffffffffffffffffffffffffffffffff16021790555050565b600260149054906101000a900460ff1681565b600960009054906101000a900473ffffffffffffffffffffffffffffffffffffffff1681565b600080828401905083811015151561114357fe5b8091505092915050565b6000808284029050600084148061116e575082848281151561116b57fe5b04145b151561117657fe5b8091505092915050565b600080828481151561118e57fe5b04905080915050929150505600a165627a7a723058204d21d96042d4c221628763362f287d8f7f63ef5f3abf43f99bdf49b6656d71e6002960606040526000600360146101000a81548160ff021916908315150217905550341561002a57600080fd5b6040516020806116678339810160405280805190602001909190505033600360006101000a81548173ffffffffffffffffffffffffffffffffffffffff021916908373ffffffffffffffffffffffffffffffffffffffff16021790555080600460003373ffffffffffffffffffffffffffffffffffffffff1673ffffffffffffffffffffffffffffffffffffffff168152602001908152602001600020819055508060008190555050611585806100e26000396000f3006060604052600436106100e6576000357c0100000000000000000000000000000000000000000000000000000000900463ffffffff16806305d2035b146100eb57806306fdde0314610118578063095ea7b3146101a657806318160ddd1461020057806323b872dd14610229578063313ce567146102a257806354fd4d50146102cb578063661884631461035957806370a08231146103b35780638da5cb5b1461040057806394bf804d1461045557806395d89b41146104af578063a9059cbb1461053d578063d73dd62314610597578063dd62ed3e146105f1578063f2fde38b1461065d575b600080fd5b34156100f657600080fd5b6100fe610696565b604051808215151515815260200191505060405180910390f35b341561012357600080fd5b61012b6106a9565b6040518080602001828103825283818151815260200191508051906020019080838360005b8381101561016b578082015181840152602081019050610150565b50505050905090810190601f1680156101985780820380516001836020036101000a031916815260200191505b509250505060405180910390f35b34156101b157600080fd5b6101e6600480803573ffffffffffffffffffffffffffffffffffffffff169060200190919080359060200190919050506106e2565b604051808215151515815260200191505060405180910390f35b341561020b57600080fd5b6102136107d4565b6040518082815260200191505060405180910390f35b341561023457600080fd5b610288600480803573ffffffffffffffffffffffffffffffffffffffff1690602001909190803573ffffffffffffffffffffffffffffffffffffffff169060200190919080359060200190919050506107da565b604051808215151515815260200191505060405180910390f35b34156102ad57600080fd5b6102b5610ac6565b6040518082815260200191505060405180910390f35b34156102d657600080fd5b6102de610acb565b6040518080602001828103825283818151815260200191508051906020019080838360005b8381101561031e578082015181840152602081019050610303565b50505050905090810190601f16801561034b5780820380516001836020036101000a031916815260200191505b509250505060405180910390f35b341561036457600080fd5b610399600480803573ffffffffffffffffffffffffffffffffffffffff16906020019091908035906020019091905050610b04565b604051808215151515815260200191505060405180910390f35b34156103be57600080fd5b6103ea600480803573ffffffffffffffffffffffffffffffffffffffff16906020019091905050610d95565b6040518082815260200191505060405180910390f35b341561040b57600080fd5b610413610dde565b604051808273ffffffffffffffffffffffffffffffffffffffff1673ffffffffffffffffffffffffffffffffffffffff16815260200191505060405180910390f35b341561046057600080fd5b610495600480803590602001909190803573ffffffffffffffffffffffffffffffffffffffff16906020019091905050610e04565b604051808215151515815260200191505060405180910390f35b34156104ba57600080fd5b6104c2610f38565b6040518080602001828103825283818151815260200191508051906020019080838360005b838110156105025780820151818401526020810190506104e7565b50505050905090810190601f16801561052f5780820380516001836020036101000a031916815260200191505b509250505060405180910390f35b341561054857600080fd5b61057d600480803573ffffffffffffffffffffffffffffffffffffffff16906020019091908035906020019091905050610f71565b604051808215151515815260200191505060405180910390f35b34156105a257600080fd5b6105d7600480803573ffffffffffffffffffffffffffffffffffffffff16906020019091908035906020019091905050611147565b604051808215151515815260200191505060405180910390f35b34156105fc57600080fd5b610647600480803573ffffffffffffffffffffffffffffffffffffffff1690602001909190803573ffffffffffffffffffffffffffffffffffffffff16906020019091905050611343565b6040518082815260200191505060405180910390f35b341561066857600080fd5b610694600480803573ffffffffffffffffffffffffffffffffffffffff169060200190919050506113ca565b005b600360149054906101000a900460ff1681565b6040805190810160405280600b81526020017f567972616c20546f6b656e00000000000000000000000000000000000000000081525081565b600081600260003373ffffffffffffffffffffffffffffffffffffffff1673ffffffffffffffffffffffffffffffffffffffff16815260200190815260200160002060008573ffffffffffffffffffffffffffffffffffffffff1673ffffffffffffffffffffffffffffffffffffffff168152602001908152602001600020819055508273ffffffffffffffffffffffffffffffffffffffff163373ffffffffffffffffffffffffffffffffffffffff167f8c5be1e5ebec7d5bd14f71427d1e84f3dd0314c0f7b2291e5b200ac8c7c3b925846040518082815260200191505060405180910390a36001905092915050565b60005481565b600080600073ffffffffffffffffffffffffffffffffffffffff168473ffffffffffffffffffffffffffffffffffffffff161415151561081957600080fd5b600260008673ffffffffffffffffffffffffffffffffffffffff1673ffffffffffffffffffffffffffffffffffffffff16815260200190815260200160002060003373ffffffffffffffffffffffffffffffffffffffff1673ffffffffffffffffffffffffffffffffffffffff1681526020019081526020016000205490506108ea83600160008873ffffffffffffffffffffffffffffffffffffffff1673ffffffffffffffffffffffffffffffffffffffff1681526020019081526020016000205461152290919063ffffffff16565b600160008773ffffffffffffffffffffffffffffffffffffffff1673ffffffffffffffffffffffffffffffffffffffff1681526020019081526020016000208190555061097f83600160008773ffffffffffffffffffffffffffffffffffffffff1673ffffffffffffffffffffffffffffffffffffffff1681526020019081526020016000205461153b90919063ffffffff16565b600160008673ffffffffffffffffffffffffffffffffffffffff1673ffffffffffffffffffffffffffffffffffffffff168152602001908152602001600020819055506109d5838261152290919063ffffffff16565b600260008773ffffffffffffffffffffffffffffffffffffffff1673ffffffffffffffffffffffffffffffffffffffff16815260200190815260200160002060003373ffffffffffffffffffffffffffffffffffffffff1673ffffffffffffffffffffffffffffffffffffffff168152602001908152602001600020819055508373ffffffffffffffffffffffffffffffffffffffff168573ffffffffffffffffffffffffffffffffffffffff167fddf252ad1be2c89b69c2b068fc378daa952ba7f163c4a11628f55a4df523b3ef856040518082815260200191505060405180910390a360019150509392505050565b601281565b6040805190810160405280600381526020017f312e30000000000000000000000000000000000000000000000000000000000081525081565b600080600260003373ffffffffffffffffffffffffffffffffffffffff1673ffffffffffffffffffffffffffffffffffffffff16815260200190815260200160002060008573ffffffffffffffffffffffffffffffffffffffff1673ffffffffffffffffffffffffffffffffffffffff16815260200190815260200160002054905080831115610c15576000600260003373ffffffffffffffffffffffffffffffffffffffff1673ffffffffffffffffffffffffffffffffffffffff16815260200190815260200160002060008673ffffffffffffffffffffffffffffffffffffffff1673ffffffffffffffffffffffffffffffffffffffff16815260200190815260200160002081905550610ca9565b610c28838261152290919063ffffffff16565b600260003373ffffffffffffffffffffffffffffffffffffffff1673ffffffffffffffffffffffffffffffffffffffff16815260200190815260200160002060008673ffffffffffffffffffffffffffffffffffffffff1673ffffffffffffffffffffffffffffffffffffffff168152602001908152602001600020819055505b8373ffffffffffffffffffffffffffffffffffffffff163373ffffffffffffffffffffffffffffffffffffffff167f8c5be1e5ebec7d5bd14f71427d1e84f3dd0314c0f7b2291e5b200ac8c7c3b925600260003373ffffffffffffffffffffffffffffffffffffffff1673ffffffffffffffffffffffffffffffffffffffff16815260200190815260200160002060008873ffffffffffffffffffffffffffffffffffffffff1673ffffffffffffffffffffffffffffffffffffffff168152602001908152602001600020546040518082815260200191505060405180910390a3600191505092915050565b6000600460008373ffffffffffffffffffffffffffffffffffffffff1673ffffffffffffffffffffffffffffffffffffffff168152602001908152602001600020549050919050565b600360009054906101000a900473ffffffffffffffffffffffffffffffffffffffff1681565b6000600360009054906101000a900473ffffffffffffffffffffffffffffffffffffffff1673ffffffffffffffffffffffffffffffffffffffff163373ffffffffffffffffffffffffffffffffffffffff16141515610e6257600080fd5b600360149054906101000a900460ff16151515610e7e57600080fd5b610e938360005461153b90919063ffffffff16565b600081905550610eeb83600460008573ffffffffffffffffffffffffffffffffffffffff1673ffffffffffffffffffffffffffffffffffffffff1681526020019081526020016000205461153b90919063ffffffff16565b600460008473ffffffffffffffffffffffffffffffffffffffff1673ffffffffffffffffffffffffffffffffffffffff168152602001908152602001600020819055506001905092915050565b6040805190810160405280600581526020017f534841524500000000000000000000000000000000000000000000000000000081525081565b60008073ffffffffffffffffffffffffffffffffffffffff168373ffffffffffffffffffffffffffffffffffffffff1614151515610fae57600080fd5b61100082600160003373ffffffffffffffffffffffffffffffffffffffff1673ffffffffffffffffffffffffffffffffffffffff1681526020019081526020016000205461152290919063ffffffff16565b600160003373ffffffffffffffffffffffffffffffffffffffff1673ffffffffffffffffffffffffffffffffffffffff1681526020019081526020016000208190555061109582600160008673ffffffffffffffffffffffffffffffffffffffff1673ffffffffffffffffffffffffffffffffffffffff1681526020019081526020016000205461153b90919063ffffffff16565b600160008573ffffffffffffffffffffffffffffffffffffffff1673ffffffffffffffffffffffffffffffffffffffff168152602001908152602001600020819055508273ffffffffffffffffffffffffffffffffffffffff163373ffffffffffffffffffffffffffffffffffffffff167fddf252ad1be2c89b69c2b068fc378daa952ba7f163c4a11628f55a4df523b3ef846040518082815260200191505060405180910390a36001905092915050565b60006111d882600260003373ffffffffffffffffffffffffffffffffffffffff1673ffffffffffffffffffffffffffffffffffffffff16815260200190815260200160002060008673ffffffffffffffffffffffffffffffffffffffff1673ffffffffffffffffffffffffffffffffffffffff1681526020019081526020016000205461153b90919063ffffffff16565b600260003373ffffffffffffffffffffffffffffffffffffffff1673ffffffffffffffffffffffffffffffffffffffff16815260200190815260200160002060008573ffffffffffffffffffffffffffffffffffffffff1673ffffffffffffffffffffffffffffffffffffffff168152602001908152602001600020819055508273ffffffffffffffffffffffffffffffffffffffff163373ffffffffffffffffffffffffffffffffffffffff167f8c5be1e5ebec7d5bd14f71427d1e84f3dd0314c0f7b2291e5b200ac8c7c3b925600260003373ffffffffffffffffffffffffffffffffffffffff1673ffffffffffffffffffffffffffffffffffffffff16815260200190815260200160002060008773ffffffffffffffffffffffffffffffffffffffff1673ffffffffffffffffffffffffffffffffffffffff168152602001908152602001600020546040518082815260200191505060405180910390a36001905092915050565b6000600260008473ffffffffffffffffffffffffffffffffffffffff1673ffffffffffffffffffffffffffffffffffffffff16815260200190815260200160002060008373ffffffffffffffffffffffffffffffffffffffff1673ffffffffffffffffffffffffffffffffffffffff16815260200190815260200160002054905092915050565b600360009054906101000a900473ffffffffffffffffffffffffffffffffffffffff1673ffffffffffffffffffffffffffffffffffffffff163373ffffffffffffffffffffffffffffffffffffffff1614151561142657600080fd5b600073ffffffffffffffffffffffffffffffffffffffff168173ffffffffffffffffffffffffffffffffffffffff161415151561146257600080fd5b8073ffffffffffffffffffffffffffffffffffffffff16600360009054906101000a900473ffffffffffffffffffffffffffffffffffffffff1673ffffffffffffffffffffffffffffffffffffffff167f8be0079c531659141344cd1fd0a4f28419497f9722a3daafe3b4186f6b6457e060405160405180910390a380600360006101000a81548173ffffffffffffffffffffffffffffffffffffffff021916908373ffffffffffffffffffffffffffffffffffffffff16021790555050565b600082821115151561153057fe5b818303905092915050565b600080828401905083811015151561154f57fe5b80915050929150505600a165627a7a72305820eeed654d4a8f48f06a1a2aab247254e673e729d15cbab4eee62e254c94fc70b40029606060405260008060146101000a81548160ff021916908315150217905550341561002957600080fd5b604051606080610e1d83398101604052808051906020019091908051906020019091908051906020019091905050336000806101000a81548173ffffffffffffffffffffffffffffffffffffffff021916908373ffffffffffffffffffffffffffffffffffffffff16021790555060408051908101604052808473ffffffffffffffffffffffffffffffffffffffff16815260200183815250600160008201518160000160006101000a81548173ffffffffffffffffffffffffffffffffffffffff021916908373ffffffffffffffffffffffffffffffffffffffff1602179055506020820151816001015590505080600460006101000a81548173ffffffffffffffffffffffffffffffffffffffff021916908373ffffffffffffffffffffffffffffffffffffffff1602179055506000600460146101000a81548160ff0219169083600481111561017857fe5b0217905550505050610c8e8061018f6000396000f3006060604052600436106100a4576000357c0100000000000000000000000000000000000000000000000000000000900463ffffffff168063127714c7146100b157806328ffe6c81461010d5780633f4ba83a146101465780635c975abb1461015b5780635e52a00b14610188578063809dab6a146101dd5780638456cb59146102065780638da5cb5b1461021b578063c19d93fb14610270578063f2fde38b146102a7575b34156100af57600080fd5b005b34156100bc57600080fd5b6100c46102e0565b604051808373ffffffffffffffffffffffffffffffffffffffff1673ffffffffffffffffffffffffffffffffffffffff1681526020018281526020019250505060405180910390f35b341561011857600080fd5b610144600480803573ffffffffffffffffffffffffffffffffffffffff16906020019091905050610316565b005b341561015157600080fd5b6101596103f7565b005b341561016657600080fd5b61016e6104b5565b604051808215151515815260200191505060405180910390f35b341561019357600080fd5b61019b6104c8565b604051808273ffffffffffffffffffffffffffffffffffffffff1673ffffffffffffffffffffffffffffffffffffffff16815260200191505060405180910390f35b34156101e857600080fd5b6101f0610594565b6040518082815260200191505060405180910390f35b341561021157600080fd5b61021961059e565b005b341561022657600080fd5b61022e61065e565b604051808273ffffffffffffffffffffffffffffffffffffffff1673ffffffffffffffffffffffffffffffffffffffff16815260200191505060405180910390f35b341561027b57600080fd5b610283610683565b6040518082600481111561029357fe5b60ff16815260200191505060405180910390f35b34156102b257600080fd5b6102de600480803573ffffffffffffffffffffffffffffffffffffffff16906020019091905050610696565b005b600080600160000160009054906101000a900473ffffffffffffffffffffffffffffffffffffffff169150600180015490509091565b600180600481111561032457fe5b600460149054906101000a900460ff16600481111561033f57fe5b14151561034b57600080fd5b8160008173ffffffffffffffffffffffffffffffffffffffff161415151561037257600080fd5b82600061037d6104c8565b73ffffffffffffffffffffffffffffffffffffffff16141515156103a057600080fd5b60006103aa610594565b101515156103b757600080fd5b6103f13385600460009054906101000a900473ffffffffffffffffffffffffffffffffffffffff1660036107eb909392919063ffffffff16565b50505050565b6000809054906101000a900473ffffffffffffffffffffffffffffffffffffffff1673ffffffffffffffffffffffffffffffffffffffff163373ffffffffffffffffffffffffffffffffffffffff1614151561045257600080fd5b600060149054906101000a900460ff16151561046d57600080fd5b60008060146101000a81548160ff0219169083151502179055507f7805862f689e2f13df9f062ff482ad3ad112aca9e0847911ed832e158c525b3360405160405180910390a1565b600060149054906101000a900460ff1681565b6000600373__ReferralTree__________________________6347f6bc039091336000604051602001526040518363ffffffff167c0100000000000000000000000000000000000000000000000000000000028152600401808381526020018273ffffffffffffffffffffffffffffffffffffffff1673ffffffffffffffffffffffffffffffffffffffff1681526020019250505060206040518083038186803b151561057457600080fd5b6102c65a03f4151561058557600080fd5b50505060405180519050905090565b600061ddd5905090565b6000809054906101000a900473ffffffffffffffffffffffffffffffffffffffff1673ffffffffffffffffffffffffffffffffffffffff163373ffffffffffffffffffffffffffffffffffffffff161415156105f957600080fd5b600060149054906101000a900460ff1615151561061557600080fd5b6001600060146101000a81548160ff0219169083151502179055507f6985a02210a168e66602d3235cb6db0e70f92b3ba4d376a33c0f3d9434bff62560405160405180910390a1565b6000809054906101000a900473ffffffffffffffffffffffffffffffffffffffff1681565b600460149054906101000a900460ff1681565b6000809054906101000a900473ffffffffffffffffffffffffffffffffffffffff1673ffffffffffffffffffffffffffffffffffffffff163373ffffffffffffffffffffffffffffffffffffffff161415156106f157600080fd5b600073ffffffffffffffffffffffffffffffffffffffff168173ffffffffffffffffffffffffffffffffffffffff161415151561072d57600080fd5b8073ffffffffffffffffffffffffffffffffffffffff166000809054906101000a900473ffffffffffffffffffffffffffffffffffffffff1673ffffffffffffffffffffffffffffffffffffffff167f8be0079c531659141344cd1fd0a4f28419497f9722a3daafe3b4186f6b6457e060405160405180910390a3806000806101000a81548173ffffffffffffffffffffffffffffffffffffffff021916908373ffffffffffffffffffffffffffffffffffffffff16021790555050565b6107f3610bbd565b6107fb610bbd565b600085836000019073ffffffffffffffffffffffffffffffffffffffff16908173ffffffffffffffffffffffffffffffffffffffff168152505084836020019073ffffffffffffffffffffffffffffffffffffffff16908173ffffffffffffffffffffffffffffffffffffffff16815250508660000160008673ffffffffffffffffffffffffffffffffffffffff1673ffffffffffffffffffffffffffffffffffffffff168152602001908152602001600020608060405190810160405290816000820160009054906101000a900473ffffffffffffffffffffffffffffffffffffffff1673ffffffffffffffffffffffffffffffffffffffff1673ffffffffffffffffffffffffffffffffffffffff1681526020016001820160009054906101000a900473ffffffffffffffffffffffffffffffffffffffff1673ffffffffffffffffffffffffffffffffffffffff1673ffffffffffffffffffffffffffffffffffffffff168152602001600282018054806020026020016040519081016040528092919081815260200182805480156109eb57602002820191906000526020600020905b8160009054906101000a900473ffffffffffffffffffffffffffffffffffffffff1673ffffffffffffffffffffffffffffffffffffffff16815260200190600101908083116109a1575b50505050508152602001600382016040805190810160405290816000820160009054906101000a900473ffffffffffffffffffffffffffffffffffffffff1673ffffffffffffffffffffffffffffffffffffffff1673ffffffffffffffffffffffffffffffffffffffff168152602001600182015481525050815250509150858260400151836040015151815181101515610a8257fe5b9060200190602002019073ffffffffffffffffffffffffffffffffffffffff16908173ffffffffffffffffffffffffffffffffffffffff16815250508390508073ffffffffffffffffffffffffffffffffffffffff16630f89177886886000604051602001526040518363ffffffff167c0100000000000000000000000000000000000000000000000000000000028152600401808373ffffffffffffffffffffffffffffffffffffffff1673ffffffffffffffffffffffffffffffffffffffff1681526020018273ffffffffffffffffffffffffffffffffffffffff1673ffffffffffffffffffffffffffffffffffffffff16815260200192505050602060405180830381600087803b1515610b9857600080fd5b6102c65a03f11515610ba957600080fd5b505050604051805190505050505050505050565b60a060405190810160405280600073ffffffffffffffffffffffffffffffffffffffff168152602001600073ffffffffffffffffffffffffffffffffffffffff168152602001610c0b610c1e565b8152602001610c18610c32565b81525090565b602060405190810160405280600081525090565b6040805190810160405280600073ffffffffffffffffffffffffffffffffffffffff1681526020016000815250905600a165627a7a72305820008d8773e5a95c4e718bdcb63c2424a13df76ced6b5d6acacce56304745799910029",
  "source": "pragma solidity ^0.4.18;\n\nimport \"./Campaign.sol\";\nimport \"./Share.sol\";\n\nimport '../node_modules/zeppelin-solidity/contracts/ownership/Ownable.sol';\nimport '../node_modules/zeppelin-solidity/contracts/math/SafeMath.sol';\n\n/**\n * @title Vyral Sale\n * @dev The driver contract.\n */\ncontract VyralSale is Ownable {\n    using SafeMath for uint;\n\n    /// Some useful constants\n    uint public constant ONE_MILLION = 1000000 * (10 ** uint(18));\n\n    /// Minimum contribution amount.\n    uint public constant SALE_MIN = 1 ether;\n\n    /// Maximum contribtuion amount.\n    uint public constant SALE_MAX = 50000 ether;\n\n    /// Exchange rate 1 Ether = 1,700 SHAREs\n    uint public constant SHARES_PER_ETH = 4825;\n\n    /// Total tokens that can be minted\n    uint public constant TOTAL_SUPPLY = 777777777 * (10 ** uint(18));\n\n    /// Address at which to hold tokens for team and advisors\n    address public VYRAL_TEAM = 0x0;\n\n    /// Address at which to hold tokens for partnerships and development\n    address public VYRAL_PARTNERSHIPS = 0x0;\n\n\n    /// The sale can be in one of the following states\n    enum Status {\n        Created,\n        Started,\n        Ended,\n        Finalized\n    }\n\n    // Current state of the sale\n    Status public saleStatus;\n\n    /// Funds collected so far.\n    uint public weiRaised = 0;\n\n    /// Sale start date (December 1, 2017)\n    uint public saleBeginsAt = 1512086400; // TODO: can use type uint64 for timestamps.\n\n    /// Sale duration\n    uint public saleDuration = 30 days;\n\n    /// Set after sale is over and tokens are allocated\n    uint public saleFinalizedAt;\n\n    /// Mapping from purchaser address to amount of ether spent\n    mapping (address => uint) public purchases;\n\n    /// Holds ETH deposits for Vyral\n    address public wallet;\n\n    /// Token in use\n    Share public token;\n\n    /// Vyral sale campaign\n    Campaign campaign;\n\n    /*\n     * Modifiers\n     */\n    modifier ifExceedsMinPurchase {\n        require(msg.value >= SALE_MIN);\n        _;\n    }\n\n    modifier ifBelowHardCap {\n        require(weiRaised.add(msg.value) <= SALE_MAX);\n        _;\n    }\n\n    modifier inStatus(Status _status) {\n        require(saleStatus == _status);\n        _;\n    }\n\n    modifier notInStatus(Status _status) {\n        require(saleStatus != _status);\n        _;\n    }\n\n\n    /*\n     * Events\n     */\n    event LogPurchase(address buyer, uint amount);\n\n    /**\n     * One of a kind.\n     */\n    function VyralSale(\n        uint _budgetAmount,\n        address _payoffStrategy\n    ) {\n        token = new Share(TOTAL_SUPPLY);\n        token.transfer(this, token.totalSupply());\n\n        campaign = new Campaign(address(token), _budgetAmount, _payoffStrategy);\n\n        saleStatus = Status.Created;\n    }\n\n\n    /**\n     * @dev By default, SHAREs are allocated if ETH is sent to this contract.\n     */\n    function()\n        public\n        payable\n    {\n        buyTokens(msg.sender);\n    }\n\n    /**\n     * @dev Conclude the sale and begin minting process. Tokens are allocated as follows:\n     *      A. Team & Advisor 14.3% (1/7) - 111,111,111 SHARE\n     *      B. Partnerships + Development + Sharing Bounties 14.3% (1/7) - 111,111,111 SHARE\n     *      C. Crowdsale Vyral Rewards & Remainder for Future Vyral Sales 28.6% (2/7) - 111,111,111 SHARE\n     *      D. Crowdsale 42.9% (3/7) - 333,333,333 SHARE\n     */\n    function finalize()\n        external\n        onlyOwner\n        inStatus(Status.Ended)\n        notInStatus(Status.Finalized)\n    {\n        uint totalSupply = weiRaised.mul(SHARES_PER_ETH);\n        token.mint(totalSupply, address(wallet));\n\n        uint oneSeventh = totalSupply.mul(143).div(1000);\n        uint twoSevenths = totalSupply.mul(286).div(1000);\n        uint threeSevenths = totalSupply.mul(429).div(1000);\n\n        // A. Team & Advisor 14.3% (1/7) - 111,111,111 SHARE\n        token.transfer(VYRAL_TEAM, oneSeventh);\n\n        // B. Partnerships + Development + Sharing Bounties 14.3% (1/7) - 111,111,111 SHARE\n        token.transfer(VYRAL_PARTNERSHIPS, oneSeventh);\n\n        // C. Crowdsale Vyral Rewards & Remainder for Future Vyral Sales 28.6% (2/7) - 111,111,111 SHARE\n        token.transfer(campaign, twoSevenths);\n\n        // D. Crowdsale 42.9% (3/7) - 333,333,333 SHARE\n        uint crowdsaleAllocation = threeSevenths;   // TODO: use this variable\n\n        saleStatus = Status.Finalized;\n        saleFinalizedAt = now;\n    }\n\n    /**\n     * @dev Send Ether, receive SHARE.\n     *\n     * @param buyer Address of buying contract or account\n     */\n    function buyTokens(\n        address buyer\n    )\n        internal // TODO: Can make this public\n        ifBelowHardCap\n        ifExceedsMinPurchase\n    {\n        uint weiReceived = msg.value;\n        uint shares = weiReceived * SHARES_PER_ETH;\n\n        // Transfer funds to wallet\n        wallet.transfer(msg.value);\n\n        // Enough to buy any tokens?\n        require(shares > 0);\n\n//        // Running totals\n//        purchases[buyer] = weiReceived.add(purchases[buyer]);\n//        weiRaised = weiRaised.add(weiReceived);\n\n        uint excessAmount = msg.value % SHARES_PER_ETH;\n        uint purchaseAmount = msg.value - excessAmount;\n        uint tokenPurchase = purchaseAmount / SHARES_PER_ETH;\n\n        // Cannot purchase more tokens than this contract has available to sell\n        require(tokenPurchase <= token.balanceOf(this));\n\n        // Return any excess msg.value\n        if (excessAmount > 0) {\n            msg.sender.transfer(excessAmount);\n        }\n\n        // Transfer funds to wallet\n        wallet.transfer(purchaseAmount);\n\n        // Transfer tokens to buyer\n        token.transfer(buyer, tokenPurchase);\n\n        // Log event\n        LogPurchase(buyer, weiReceived);\n    }\n\n}\n",
  "sourcePath": "/home/logan/Work/vyral/contracts/VyralSale.sol",
  "compiler": {
    "name": "solc",
    "version": "0.4.18+commit.9cf6e910.Emscripten.clang"
  },
  "schemaVersion": "1.0.1",
  "updatedAt": "2017-11-10T18:37:07.797Z"
}