{
  "contractName": "VyralSale",
  "abi": [
    {
      "constant": true,
      "inputs": [],
      "name": "saleBeginsAt",
      "outputs": [
        {
          "name": "",
          "type": "uint64"
        }
      ],
      "payable": false,
      "stateMutability": "view",
      "type": "function"
    },
    {
      "constant": true,
      "inputs": [],
      "name": "SALE_MIN",
      "outputs": [
        {
          "name": "",
          "type": "uint256"
        }
      ],
      "payable": false,
      "stateMutability": "view",
      "type": "function"
    },
    {
      "constant": true,
      "inputs": [],
      "name": "TOKEN_NAME",
      "outputs": [
        {
          "name": "",
          "type": "string"
        }
      ],
      "payable": false,
      "stateMutability": "view",
      "type": "function"
    },
    {
      "constant": true,
      "inputs": [],
      "name": "SHARES_PER_ETH",
      "outputs": [
        {
          "name": "",
          "type": "uint256"
        }
      ],
      "payable": false,
      "stateMutability": "view",
      "type": "function"
    },
    {
      "constant": true,
      "inputs": [],
      "name": "TOKEN_SYMBOL",
      "outputs": [
        {
          "name": "",
          "type": "string"
        }
      ],
      "payable": false,
      "stateMutability": "view",
      "type": "function"
    },
    {
      "constant": true,
      "inputs": [],
      "name": "saleDuration",
      "outputs": [
        {
          "name": "",
          "type": "uint256"
        }
      ],
      "payable": false,
      "stateMutability": "view",
      "type": "function"
    },
    {
      "constant": true,
      "inputs": [],
      "name": "weiRaised",
      "outputs": [
        {
          "name": "",
          "type": "uint256"
        }
      ],
      "payable": false,
      "stateMutability": "view",
      "type": "function"
    },
    {
      "constant": true,
      "inputs": [],
      "name": "wallet",
      "outputs": [
        {
          "name": "",
          "type": "address"
        }
      ],
      "payable": false,
      "stateMutability": "view",
      "type": "function"
    },
    {
      "constant": true,
      "inputs": [
        {
          "name": "",
          "type": "address"
        }
      ],
      "name": "version",
      "outputs": [
        {
          "name": "",
          "type": "string"
        }
      ],
      "payable": false,
      "stateMutability": "view",
      "type": "function"
    },
    {
      "constant": true,
      "inputs": [],
      "name": "saleFinalizedAt",
      "outputs": [
        {
          "name": "",
          "type": "uint256"
        }
      ],
      "payable": false,
      "stateMutability": "view",
      "type": "function"
    },
    {
      "constant": true,
      "inputs": [],
      "name": "TOKEN_DECIMALS",
      "outputs": [
        {
          "name": "",
          "type": "uint8"
        }
      ],
      "payable": false,
      "stateMutability": "view",
      "type": "function"
    },
    {
      "constant": true,
      "inputs": [],
      "name": "VYRAL_TEAM",
      "outputs": [
        {
          "name": "",
          "type": "address"
        }
      ],
      "payable": false,
      "stateMutability": "view",
      "type": "function"
    },
    {
      "constant": true,
      "inputs": [
        {
          "name": "",
          "type": "address"
        }
      ],
      "name": "purchases",
      "outputs": [
        {
          "name": "",
          "type": "uint256"
        }
      ],
      "payable": false,
      "stateMutability": "view",
      "type": "function"
    },
    {
      "constant": true,
      "inputs": [],
      "name": "owner",
      "outputs": [
        {
          "name": "",
          "type": "address"
        }
      ],
      "payable": false,
      "stateMutability": "view",
      "type": "function"
    },
    {
      "constant": true,
      "inputs": [
        {
          "name": "newOwner",
          "type": "address"
        }
      ],
      "name": "TOTAL_SUPPLY",
      "outputs": [
        {
          "name": "",
          "type": "uint256"
        }
      ],
      "payable": false,
      "stateMutability": "view",
      "type": "function"
    },
    {
      "constant": true,
      "inputs": [],
      "name": "ONE_MILLION",
      "outputs": [
        {
          "name": "",
          "type": "uint256"
        }
      ],
      "payable": false,
      "stateMutability": "view",
      "type": "function"
    },
    {
      "constant": true,
      "inputs": [],
      "name": "SALE_MAX",
      "outputs": [
        {
          "name": "",
          "type": "uint256"
        }
      ],
      "payable": false,
      "stateMutability": "view",
      "type": "function"
    },
    {
      "inputs": [
        {
          "name": "_newOwner",
          "type": "address"
        },
        {
          "name": "_payoffStrategy",
          "type": "address"
        }
      ],
      "payable": false,
      "stateMutability": "nonpayable",
      "type": "function",
      "constant": false,
      "name": "changeOwner",
      "outputs": []
    },
    {
      "payable": false,
      "stateMutability": "view",
      "type": "function",
      "constant": true,
      "inputs": [],
      "name": "VYRAL_PARTNERSHIPS",
      "outputs": [
        {
          "name": "",
          "type": "address"
        }
      ]
    },
    {
      "anonymous": false,
      "inputs": [
        {
          "indexed": false,
          "name": "buyer",
          "type": "address"
        },
        {
          "indexed": false,
          "name": "amount",
          "type": "uint256"
        }
      ],
      "name": "saleStatus",
      "type": "function",
      "constant": true,
      "outputs": [
        {
          "name": "",
          "type": "uint8"
        }
      ],
      "payable": false,
      "stateMutability": "view"
    },
    {
      "anonymous": false,
      "inputs": [
        {
          "indexed": true,
          "name": "previousOwner",
          "type": "address"
        },
        {
          "indexed": true,
          "name": "newOwner",
          "type": "address"
        }
      ],
      "name": "token",
      "type": "function",
      "constant": true,
      "outputs": [
        {
          "name": "",
          "type": "address"
        }
      ],
      "payable": false,
      "stateMutability": "view"
    },
    {
      "inputs": [
        {
          "name": "_budgetAmount",
          "type": "uint256"
        },
        {
          "name": "_payoffStrategy",
          "type": "address"
        }
      ],
      "payable": false,
      "stateMutability": "nonpayable",
      "type": "constructor"
    },
    {
      "payable": true,
      "stateMutability": "payable",
      "type": "fallback"
    },
    {
      "anonymous": false,
      "inputs": [
        {
          "indexed": false,
          "name": "buyer",
          "type": "address"
        },
        {
          "indexed": false,
          "name": "amount",
          "type": "uint256"
        }
      ],
      "name": "LogPurchase",
      "type": "event"
    }
  ],
  "bytecode": "0x606060405260008060006101000a81548173ffffffffffffffffffffffffffffffffffffffff021916908373ffffffffffffffffffffffffffffffffffffffff1602179055506000600160006101000a81548173ffffffffffffffffffffffffffffffffffffffff021916908373ffffffffffffffffffffffffffffffffffffffff1602179055506000600255635a209b80600360006101000a81548167ffffffffffffffff021916908367ffffffffffffffff16021790555062278d0060045534156100cb57600080fd5b604051604080612a7b833981016040528080519060200190919080519060200190919050506012600a0a632e5bf271026040805190810160405280600b81526020017f567972616c20546f6b656e00000000000000000000000000000000000000000081525060126040805190810160405280600581526020017f5348415245000000000000000000000000000000000000000000000000000000815250610171610565565b80858152602001806020018460ff1660ff16815260200180602001838103835286818151815260200191508051906020019080838360005b838110156101c45780820151818401526020810190506101a9565b50505050905090810190601f1680156101f15780820380516001836020036101000a031916815260200191505b50838103825284818151815260200191508051906020019080838360005b8381101561022a57808201518184015260208101905061020f565b50505050905090810190601f1680156102575780820380516001836020036101000a031916815260200191505b509650505050505050604051809103906000f080151561027657600080fd5b600960006101000a81548173ffffffffffffffffffffffffffffffffffffffff021916908373ffffffffffffffffffffffffffffffffffffffff160217905550600960009054906101000a900473ffffffffffffffffffffffffffffffffffffffff1673ffffffffffffffffffffffffffffffffffffffff1663a9059cbb30600960009054906101000a900473ffffffffffffffffffffffffffffffffffffffff1673ffffffffffffffffffffffffffffffffffffffff166318160ddd6000604051602001526040518163ffffffff167c0100000000000000000000000000000000000000000000000000000000028152600401602060405180830381600087803b151561038357600080fd5b6102c65a03f1151561039457600080fd5b505050604051805190506000604051602001526040518363ffffffff167c0100000000000000000000000000000000000000000000000000000000028152600401808373ffffffffffffffffffffffffffffffffffffffff1673ffffffffffffffffffffffffffffffffffffffff16815260200182815260200192505050602060405180830381600087803b151561042b57600080fd5b6102c65a03f1151561043c57600080fd5b5050506040518051905050600960009054906101000a900473ffffffffffffffffffffffffffffffffffffffff168282610474610575565b808473ffffffffffffffffffffffffffffffffffffffff1673ffffffffffffffffffffffffffffffffffffffff1681526020018381526020018273ffffffffffffffffffffffffffffffffffffffff1673ffffffffffffffffffffffffffffffffffffffff1681526020019350505050604051809103906000f08015156104fa57600080fd5b600a60006101000a81548173ffffffffffffffffffffffffffffffffffffffff021916908373ffffffffffffffffffffffffffffffffffffffff1602179055506000600160146101000a81548160ff0219169083600381111561055957fe5b02179055505050610585565b60405161117880610f6883390190565b60405161099b806120e083390190565b6109d4806105946000396000f30060606040526004361061011d576000357c0100000000000000000000000000000000000000000000000000000000900463ffffffff16806306cbb9761461011f578063136e1b5f1461015c5780631882140014610185578063222c0b11146102135780632a9053181461023c5780633711d9fb146102ca5780634042b66f146102f3578063521eb2731461031c57806354fd4d501461037157806359667204146103ff5780635b7f415c146104285780637806e75614610457578063842a77d3146104ac5780638da5cb5b146104f9578063902d55a51461054e5780639869b73614610577578063a31317a1146105a0578063a6f9dae1146105c9578063d3a0926e14610602578063f9020e3314610657578063fc0c546a1461068e575b005b341561012a57600080fd5b6101326106e3565b604051808267ffffffffffffffff1667ffffffffffffffff16815260200191505060405180910390f35b341561016757600080fd5b61016f6106fd565b6040518082815260200191505060405180910390f35b341561019057600080fd5b610198610709565b6040518080602001828103825283818151815260200191508051906020019080838360005b838110156101d85780820151818401526020810190506101bd565b50505050905090810190601f1680156102055780820380516001836020036101000a031916815260200191505b509250505060405180910390f35b341561021e57600080fd5b610226610742565b6040518082815260200191505060405180910390f35b341561024757600080fd5b61024f610748565b6040518080602001828103825283818151815260200191508051906020019080838360005b8381101561028f578082015181840152602081019050610274565b50505050905090810190601f1680156102bc5780820380516001836020036101000a031916815260200191505b509250505060405180910390f35b34156102d557600080fd5b6102dd610781565b6040518082815260200191505060405180910390f35b34156102fe57600080fd5b610306610787565b6040518082815260200191505060405180910390f35b341561032757600080fd5b61032f61078d565b604051808273ffffffffffffffffffffffffffffffffffffffff1673ffffffffffffffffffffffffffffffffffffffff16815260200191505060405180910390f35b341561037c57600080fd5b6103846107b3565b6040518080602001828103825283818151815260200191508051906020019080838360005b838110156103c45780820151818401526020810190506103a9565b50505050905090810190601f1680156103f15780820380516001836020036101000a031916815260200191505b509250505060405180910390f35b341561040a57600080fd5b6104126107ec565b6040518082815260200191505060405180910390f35b341561043357600080fd5b61043b6107f2565b604051808260ff1660ff16815260200191505060405180910390f35b341561046257600080fd5b61046a6107f7565b604051808273ffffffffffffffffffffffffffffffffffffffff1673ffffffffffffffffffffffffffffffffffffffff16815260200191505060405180910390f35b34156104b757600080fd5b6104e3600480803573ffffffffffffffffffffffffffffffffffffffff1690602001909190505061081c565b6040518082815260200191505060405180910390f35b341561050457600080fd5b61050c610834565b604051808273ffffffffffffffffffffffffffffffffffffffff1673ffffffffffffffffffffffffffffffffffffffff16815260200191505060405180910390f35b341561055957600080fd5b61056161085a565b6040518082815260200191505060405180910390f35b341561058257600080fd5b61058a610868565b6040518082815260200191505060405180910390f35b34156105ab57600080fd5b6105b3610875565b6040518082815260200191505060405180910390f35b34156105d457600080fd5b610600600480803573ffffffffffffffffffffffffffffffffffffffff16906020019091905050610883565b005b341561060d57600080fd5b610615610949565b604051808273ffffffffffffffffffffffffffffffffffffffff1673ffffffffffffffffffffffffffffffffffffffff16815260200191505060405180910390f35b341561066257600080fd5b61066a61096f565b6040518082600381111561067a57fe5b60ff16815260200191505060405180910390f35b341561069957600080fd5b6106a1610982565b604051808273ffffffffffffffffffffffffffffffffffffffff1673ffffffffffffffffffffffffffffffffffffffff16815260200191505060405180910390f35b600360009054906101000a900467ffffffffffffffff1681565b670de0b6b3a764000081565b6040805190810160405280600b81526020017f567972616c20546f6b656e00000000000000000000000000000000000000000081525081565b6112d981565b6040805190810160405280600581526020017f534841524500000000000000000000000000000000000000000000000000000081525081565b60045481565b60025481565b600860009054906101000a900473ffffffffffffffffffffffffffffffffffffffff1681565b6040805190810160405280600381526020017f312e30000000000000000000000000000000000000000000000000000000000081525081565b60055481565b601281565b6000809054906101000a900473ffffffffffffffffffffffffffffffffffffffff1681565b60066020528060005260406000206000915090505481565b600760009054906101000a900473ffffffffffffffffffffffffffffffffffffffff1681565b6012600a0a632e5bf2710281565b6012600a0a620f42400281565b690a968163f0a57b40000081565b600760009054906101000a900473ffffffffffffffffffffffffffffffffffffffff1673ffffffffffffffffffffffffffffffffffffffff163373ffffffffffffffffffffffffffffffffffffffff161415156108df57600080fd5b60008173ffffffffffffffffffffffffffffffffffffffff161415151561090557600080fd5b80600760006101000a81548173ffffffffffffffffffffffffffffffffffffffff021916908373ffffffffffffffffffffffffffffffffffffffff16021790555050565b600160009054906101000a900473ffffffffffffffffffffffffffffffffffffffff1681565b600160149054906101000a900460ff1681565b600960009054906101000a900473ffffffffffffffffffffffffffffffffffffffff16815600a165627a7a7230582085995b802875bf199f6be73535ef3d510bdd9975cafa42cb0c69938b50f63c48002960606040526040805190810160405280600481526020017f48302e3100000000000000000000000000000000000000000000000000000000815250600690805190602001906200005192919062000139565b5034156200005e57600080fd5b60405162001178380380620011788339810160405280805190602001909190805182019190602001805190602001909190805182019190505083600160003373ffffffffffffffffffffffffffffffffffffffff1673ffffffffffffffffffffffffffffffffffffffff16815260200190815260200160002081905550836000819055508260039080519060200190620000fa92919062000139565b5081600460006101000a81548160ff021916908360ff16021790555080600590805190602001906200012e92919062000139565b5050505050620001e8565b828054600181600116156101000203166002900490600052602060002090601f016020900481019282601f106200017c57805160ff1916838001178555620001ad565b82800160010185558215620001ad579182015b82811115620001ac5782518255916020019190600101906200018f565b5b509050620001bc9190620001c0565b5090565b620001e591905b80821115620001e1576000816000905550600101620001c7565b5090565b90565b610f8080620001f86000396000f3006060604052600436106100af576000357c0100000000000000000000000000000000000000000000000000000000900463ffffffff16806306fdde03146100b4578063095ea7b31461014257806318160ddd1461019c57806323b872dd146101c5578063313ce5671461023e57806354fd4d501461026d57806370a08231146102fb57806395d89b4114610348578063a9059cbb146103d6578063cae9ca5114610430578063dd62ed3e146104cd575b600080fd5b34156100bf57600080fd5b6100c7610539565b6040518080602001828103825283818151815260200191508051906020019080838360005b838110156101075780820151818401526020810190506100ec565b50505050905090810190601f1680156101345780820380516001836020036101000a031916815260200191505b509250505060405180910390f35b341561014d57600080fd5b610182600480803573ffffffffffffffffffffffffffffffffffffffff169060200190919080359060200190919050506105d7565b604051808215151515815260200191505060405180910390f35b34156101a757600080fd5b6101af6106c9565b6040518082815260200191505060405180910390f35b34156101d057600080fd5b610224600480803573ffffffffffffffffffffffffffffffffffffffff1690602001909190803573ffffffffffffffffffffffffffffffffffffffff169060200190919080359060200190919050506106cf565b604051808215151515815260200191505060405180910390f35b341561024957600080fd5b61025161093b565b604051808260ff1660ff16815260200191505060405180910390f35b341561027857600080fd5b61028061094e565b6040518080602001828103825283818151815260200191508051906020019080838360005b838110156102c05780820151818401526020810190506102a5565b50505050905090810190601f1680156102ed5780820380516001836020036101000a031916815260200191505b509250505060405180910390f35b341561030657600080fd5b610332600480803573ffffffffffffffffffffffffffffffffffffffff169060200190919050506109ec565b6040518082815260200191505060405180910390f35b341561035357600080fd5b61035b610a35565b6040518080602001828103825283818151815260200191508051906020019080838360005b8381101561039b578082015181840152602081019050610380565b50505050905090810190601f1680156103c85780820380516001836020036101000a031916815260200191505b509250505060405180910390f35b34156103e157600080fd5b610416600480803573ffffffffffffffffffffffffffffffffffffffff16906020019091908035906020019091905050610ad3565b604051808215151515815260200191505060405180910390f35b341561043b57600080fd5b6104b3600480803573ffffffffffffffffffffffffffffffffffffffff1690602001909190803590602001909190803590602001908201803590602001908080601f01602080910402602001604051908101604052809392919081815260200183838082843782019150505050505091905050610c2c565b604051808215151515815260200191505060405180910390f35b34156104d857600080fd5b610523600480803573ffffffffffffffffffffffffffffffffffffffff1690602001909190803573ffffffffffffffffffffffffffffffffffffffff16906020019091905050610ecd565b6040518082815260200191505060405180910390f35b60038054600181600116156101000203166002900480601f0160208091040260200160405190810160405280929190818152602001828054600181600116156101000203166002900480156105cf5780601f106105a4576101008083540402835291602001916105cf565b820191906000526020600020905b8154815290600101906020018083116105b257829003601f168201915b505050505081565b600081600260003373ffffffffffffffffffffffffffffffffffffffff1673ffffffffffffffffffffffffffffffffffffffff16815260200190815260200160002060008573ffffffffffffffffffffffffffffffffffffffff1673ffffffffffffffffffffffffffffffffffffffff168152602001908152602001600020819055508273ffffffffffffffffffffffffffffffffffffffff163373ffffffffffffffffffffffffffffffffffffffff167f8c5be1e5ebec7d5bd14f71427d1e84f3dd0314c0f7b2291e5b200ac8c7c3b925846040518082815260200191505060405180910390a36001905092915050565b60005481565b600081600160008673ffffffffffffffffffffffffffffffffffffffff1673ffffffffffffffffffffffffffffffffffffffff168152602001908152602001600020541015801561079c575081600260008673ffffffffffffffffffffffffffffffffffffffff1673ffffffffffffffffffffffffffffffffffffffff16815260200190815260200160002060003373ffffffffffffffffffffffffffffffffffffffff1673ffffffffffffffffffffffffffffffffffffffff1681526020019081526020016000205410155b15156107a757600080fd5b81600160008573ffffffffffffffffffffffffffffffffffffffff1673ffffffffffffffffffffffffffffffffffffffff1681526020019081526020016000206000828254019250508190555081600160008673ffffffffffffffffffffffffffffffffffffffff1673ffffffffffffffffffffffffffffffffffffffff1681526020019081526020016000206000828254039250508190555081600260008673ffffffffffffffffffffffffffffffffffffffff1673ffffffffffffffffffffffffffffffffffffffff16815260200190815260200160002060003373ffffffffffffffffffffffffffffffffffffffff1673ffffffffffffffffffffffffffffffffffffffff168152602001908152602001600020600082825403925050819055508273ffffffffffffffffffffffffffffffffffffffff168473ffffffffffffffffffffffffffffffffffffffff167fddf252ad1be2c89b69c2b068fc378daa952ba7f163c4a11628f55a4df523b3ef846040518082815260200191505060405180910390a3600190509392505050565b600460009054906101000a900460ff1681565b60068054600181600116156101000203166002900480601f0160208091040260200160405190810160405280929190818152602001828054600181600116156101000203166002900480156109e45780601f106109b9576101008083540402835291602001916109e4565b820191906000526020600020905b8154815290600101906020018083116109c757829003601f168201915b505050505081565b6000600160008373ffffffffffffffffffffffffffffffffffffffff1673ffffffffffffffffffffffffffffffffffffffff168152602001908152602001600020549050919050565b60058054600181600116156101000203166002900480601f016020809104026020016040519081016040528092919081815260200182805460018160011615610100020316600290048015610acb5780601f10610aa057610100808354040283529160200191610acb565b820191906000526020600020905b815481529060010190602001808311610aae57829003601f168201915b505050505081565b600081600160003373ffffffffffffffffffffffffffffffffffffffff1673ffffffffffffffffffffffffffffffffffffffff1681526020019081526020016000205410151515610b2357600080fd5b81600160003373ffffffffffffffffffffffffffffffffffffffff1673ffffffffffffffffffffffffffffffffffffffff1681526020019081526020016000206000828254039250508190555081600160008573ffffffffffffffffffffffffffffffffffffffff1673ffffffffffffffffffffffffffffffffffffffff168152602001908152602001600020600082825401925050819055508273ffffffffffffffffffffffffffffffffffffffff163373ffffffffffffffffffffffffffffffffffffffff167fddf252ad1be2c89b69c2b068fc378daa952ba7f163c4a11628f55a4df523b3ef846040518082815260200191505060405180910390a36001905092915050565b600082600260003373ffffffffffffffffffffffffffffffffffffffff1673ffffffffffffffffffffffffffffffffffffffff16815260200190815260200160002060008673ffffffffffffffffffffffffffffffffffffffff1673ffffffffffffffffffffffffffffffffffffffff168152602001908152602001600020819055508373ffffffffffffffffffffffffffffffffffffffff163373ffffffffffffffffffffffffffffffffffffffff167f8c5be1e5ebec7d5bd14f71427d1e84f3dd0314c0f7b2291e5b200ac8c7c3b925856040518082815260200191505060405180910390a38373ffffffffffffffffffffffffffffffffffffffff1660405180807f72656365697665417070726f76616c28616464726573732c75696e743235362c81526020017f616464726573732c627974657329000000000000000000000000000000000000815250602e01905060405180910390207c01000000000000000000000000000000000000000000000000000000009004338530866040518563ffffffff167c0100000000000000000000000000000000000000000000000000000000028152600401808573ffffffffffffffffffffffffffffffffffffffff1673ffffffffffffffffffffffffffffffffffffffff1681526020018481526020018373ffffffffffffffffffffffffffffffffffffffff1673ffffffffffffffffffffffffffffffffffffffff168152602001828051906020019080838360005b83811015610e6d578082015181840152602081019050610e52565b50505050905090810190601f168015610e9a5780820380516001836020036101000a031916815260200191505b5094505050505060006040518083038160008761646e5a03f1925050501515610ec257600080fd5b600190509392505050565b6000600260008473ffffffffffffffffffffffffffffffffffffffff1673ffffffffffffffffffffffffffffffffffffffff16815260200190815260200160002060008373ffffffffffffffffffffffffffffffffffffffff1673ffffffffffffffffffffffffffffffffffffffff168152602001908152602001600020549050929150505600a165627a7a72305820f5f4487cf7b6ebbb0cd9d0e50d06ea948b6bf610075f01af433eb1ac638a47fd00296060604052341561000f57600080fd5b60405160608061099b8339810160405280805190602001909190805190602001909190805190602001909190505060408051908101604052808473ffffffffffffffffffffffffffffffffffffffff168152602001838152506000808201518160000160006101000a81548173ffffffffffffffffffffffffffffffffffffffff021916908373ffffffffffffffffffffffffffffffffffffffff1602179055506020820151816001015590505080600360006101000a81548173ffffffffffffffffffffffffffffffffffffffff021916908373ffffffffffffffffffffffffffffffffffffffff1602179055506000600360146101000a81548160ff0219169083600481111561011d57fe5b0217905550505050610867806101346000396000f30060606040526004361061006d576000357c0100000000000000000000000000000000000000000000000000000000900463ffffffff168063127714c71461007a57806328ffe6c8146100d65780635e52a00b1461010f578063809dab6a14610164578063c19d93fb1461018d575b341561007857600080fd5b005b341561008557600080fd5b61008d6101c4565b604051808373ffffffffffffffffffffffffffffffffffffffff1673ffffffffffffffffffffffffffffffffffffffff1681526020018281526020019250505060405180910390f35b34156100e157600080fd5b61010d600480803573ffffffffffffffffffffffffffffffffffffffff169060200190919050506101fa565b005b341561011a57600080fd5b6101226102db565b604051808273ffffffffffffffffffffffffffffffffffffffff1673ffffffffffffffffffffffffffffffffffffffff16815260200191505060405180910390f35b341561016f57600080fd5b6101776103a7565b6040518082815260200191505060405180910390f35b341561019857600080fd5b6101a06103b1565b604051808260048111156101b057fe5b60ff16815260200191505060405180910390f35b6000806000800160009054906101000a900473ffffffffffffffffffffffffffffffffffffffff16915060006001015490509091565b600180600481111561020857fe5b600360149054906101000a900460ff16600481111561022357fe5b14151561022f57600080fd5b8160008173ffffffffffffffffffffffffffffffffffffffff161415151561025657600080fd5b8260006102616102db565b73ffffffffffffffffffffffffffffffffffffffff161415151561028457600080fd5b600061028e6103a7565b1015151561029b57600080fd5b6102d53385600360009054906101000a900473ffffffffffffffffffffffffffffffffffffffff1660026103c4909392919063ffffffff16565b50505050565b6000600273__ReferralTree__________________________6347f6bc039091336000604051602001526040518363ffffffff167c0100000000000000000000000000000000000000000000000000000000028152600401808381526020018273ffffffffffffffffffffffffffffffffffffffff1673ffffffffffffffffffffffffffffffffffffffff1681526020019250505060206040518083038186803b151561038757600080fd5b6102c65a03f4151561039857600080fd5b50505060405180519050905090565b600061ddd5905090565b600360149054906101000a900460ff1681565b6103cc610796565b6103d4610796565b600085836000019073ffffffffffffffffffffffffffffffffffffffff16908173ffffffffffffffffffffffffffffffffffffffff168152505084836020019073ffffffffffffffffffffffffffffffffffffffff16908173ffffffffffffffffffffffffffffffffffffffff16815250508660000160008673ffffffffffffffffffffffffffffffffffffffff1673ffffffffffffffffffffffffffffffffffffffff168152602001908152602001600020608060405190810160405290816000820160009054906101000a900473ffffffffffffffffffffffffffffffffffffffff1673ffffffffffffffffffffffffffffffffffffffff1673ffffffffffffffffffffffffffffffffffffffff1681526020016001820160009054906101000a900473ffffffffffffffffffffffffffffffffffffffff1673ffffffffffffffffffffffffffffffffffffffff1673ffffffffffffffffffffffffffffffffffffffff168152602001600282018054806020026020016040519081016040528092919081815260200182805480156105c457602002820191906000526020600020905b8160009054906101000a900473ffffffffffffffffffffffffffffffffffffffff1673ffffffffffffffffffffffffffffffffffffffff168152602001906001019080831161057a575b50505050508152602001600382016040805190810160405290816000820160009054906101000a900473ffffffffffffffffffffffffffffffffffffffff1673ffffffffffffffffffffffffffffffffffffffff1673ffffffffffffffffffffffffffffffffffffffff16815260200160018201548152505081525050915085826040015183604001515181518110151561065b57fe5b9060200190602002019073ffffffffffffffffffffffffffffffffffffffff16908173ffffffffffffffffffffffffffffffffffffffff16815250508390508073ffffffffffffffffffffffffffffffffffffffff16630f89177886886000604051602001526040518363ffffffff167c0100000000000000000000000000000000000000000000000000000000028152600401808373ffffffffffffffffffffffffffffffffffffffff1673ffffffffffffffffffffffffffffffffffffffff1681526020018273ffffffffffffffffffffffffffffffffffffffff1673ffffffffffffffffffffffffffffffffffffffff16815260200192505050602060405180830381600087803b151561077157600080fd5b6102c65a03f1151561078257600080fd5b505050604051805190505050505050505050565b60a060405190810160405280600073ffffffffffffffffffffffffffffffffffffffff168152602001600073ffffffffffffffffffffffffffffffffffffffff1681526020016107e46107f7565b81526020016107f161080b565b81525090565b602060405190810160405280600081525090565b6040805190810160405280600073ffffffffffffffffffffffffffffffffffffffff1681526020016000815250905600a165627a7a7230582043379ad7b21ce68a53a229a3d86e03c1216817bc0e6e91e337d7ba5b89b0c5d90029",
  "source": "pragma solidity ^0.4.18;\n\nimport './math/SafeMath.sol';\nimport \"./Campaign.sol\";\nimport \"tokens/HumanStandardToken.sol\";\n\n\n/**\n * @title Vyral Sale\n * @dev The driver contract.\n */\ncontract VyralSale {\n    using SafeMath for uint;\n\n    /// Some useful constants\n    uint public constant ONE_MILLION = 1000000 * (10 ** uint(18));\n\n    /// Minimum contribution amount.\n    uint public constant SALE_MIN = 1 ether;\n\n    /// Maximum contribtuion amount.\n    uint public constant SALE_MAX = 50000 ether;\n\n    /// Exchange rate 1 Ether = 1,700 SHAREs\n    uint public constant SHARES_PER_ETH = 4825;\n\n    /// Total tokens that can be minted\n    uint public constant TOTAL_SUPPLY = 777777777 * (10 ** uint(18));\n\n    /// Address at which to hold tokens for team and advisors\n    address public VYRAL_TEAM = 0x0;\n\n    /// Address at which to hold tokens for partnerships and development\n    address public VYRAL_PARTNERSHIPS = 0x0;\n\n    string public constant TOKEN_NAME = \"Vyral Token\";\n\n    string public constant TOKEN_SYMBOL = \"SHARE\";\n\n    uint8 public constant TOKEN_DECIMALS = 18;\n\n    string public constant version = \"1.0\";\n\n    /// The sale can be in one of the following states\n    enum Status {\n        Created,\n        Started,\n        Ended,\n        Finalized\n    }\n\n    // Current state of the sale\n    Status public saleStatus;\n\n    /// Funds collected so far.\n    uint public weiRaised = 0;\n\n    /// Sale start date (December 1, 2017)\n    uint64 public saleBeginsAt = 1512086400;\n\n    /// Sale duration\n    uint public saleDuration = 30 days;\n\n    /// Set after sale is over and tokens are allocated\n    uint public saleFinalizedAt;\n\n    /// Mapping from purchaser address to amount of ether spent\n    mapping (address => uint) public purchases;\n\n    /// Owner of this contract\n    address public owner;\n\n    /// Holds ETH deposits for Vyral\n    address public wallet;\n\n    /// Token in use\n    HumanStandardToken public token;\n\n    /// Vyral sale campaign\n    Campaign campaign;\n\n    /*\n     * Modifiers\n     */\n\n    modifier onlyOwner {\n        require(msg.sender == owner);\n        _;\n    }\n\n    modifier ifExceedsMinPurchase {\n        require(msg.value >= SALE_MIN);\n        _;\n    }\n\n    modifier ifBelowHardCap {\n        require(weiRaised.add(msg.value) <= SALE_MAX);\n        _;\n    }\n\n    modifier inStatus(Status _status) {\n        require(saleStatus == _status);\n        _;\n    }\n\n    modifier notInStatus(Status _status) {\n        require(saleStatus != _status);\n        _;\n    }\n\n\n    /*\n     * Events\n     */\n    event LogPurchase(address buyer, uint amount);\n\n    /**\n     * One of a kind.\n     */\n    function VyralSale(\n        uint _budgetAmount,\n        address _payoffStrategy\n    ) {\n        token = new HumanStandardToken(TOTAL_SUPPLY, TOKEN_NAME, TOKEN_DECIMALS, TOKEN_SYMBOL);\n        token.transfer(this, token.totalSupply());\n\n        campaign = new Campaign(address(token), _budgetAmount, _payoffStrategy);\n\n        saleStatus = Status.Created;\n    }\n\n\n    /**\n     * @dev By default, SHAREs are allocated if ETH is sent to this contract.\n     */\n    function()\n        public\n        payable\n    {\n        //buyTokens(msg.sender);\n    }\n\n    /**\n     * @dev Conclude the sale and begin minting process. Tokens are allocated as follows:\n     *      A. Team & Advisor 14.3% (1/7) - 111,111,111 SHARE\n     *      B. Partnerships + Development + Sharing Bounties 14.3% (1/7) - 111,111,111 SHARE\n     *      C. Crowdsale Vyral Rewards & Remainder for Future Vyral Sales 28.6% (2/7) - 111,111,111 SHARE\n     *      D. Crowdsale 42.9% (3/7) - 333,333,333 SHARE\n     */\n//    function finalize()\n//        external\n//        onlyOwner\n//        inStatus(Status.Ended)\n//        notInStatus(Status.Finalized)\n//    {\n//        uint totalSupply = weiRaised.mul(SHARES_PER_ETH);\n//        token.mint(totalSupply, address(wallet));\n//\n//        uint oneSeventh = totalSupply.mul(143).div(1000);\n//        uint twoSevenths = totalSupply.mul(286).div(1000);\n//        uint threeSevenths = totalSupply.mul(429).div(1000);\n//\n//        // A. Team & Advisor 14.3% (1/7) - 111,111,111 SHARE\n//        token.transfer(VYRAL_TEAM, oneSeventh);\n//\n//        // B. Partnerships + Development + Sharing Bounties 14.3% (1/7) - 111,111,111 SHARE\n//        token.transfer(VYRAL_PARTNERSHIPS, oneSeventh);\n//\n//        // C. Crowdsale Vyral Rewards & Remainder for Future Vyral Sales 28.6% (2/7) - 111,111,111 SHARE\n//        token.transfer(campaign, twoSevenths);\n//\n//        // D. Crowdsale 42.9% (3/7) - 333,333,333 SHARE\n//        uint crowdsaleAllocation = threeSevenths;   // TODO: use this variable\n//\n//        saleStatus = Status.Finalized;\n//        saleFinalizedAt = now;\n//    }\n//\n    /**\n     * @dev Send Ether, receive SHARE.\n     *\n     * @param buyer Address of buying contract or account\n     */\n//    function buyTokens(\n//        address buyer\n//    )\n//        internal // TODO: Can make this public\n//        ifBelowHardCap\n//        ifExceedsMinPurchase\n//    {\n//        uint weiReceived = msg.value;\n//        uint shares = weiReceived * SHARES_PER_ETH;\n//\n//        // Transfer funds to wallet\n//        wallet.transfer(msg.value);\n//\n//        // Enough to buy any tokens?\n//        require(shares > 0);\n//\n////        // Running totals\n////        purchases[buyer] = weiReceived.add(purchases[buyer]);\n////        weiRaised = weiRaised.add(weiReceived);\n//\n//        uint excessAmount = msg.value % SHARES_PER_ETH;\n//        uint purchaseAmount = msg.value - excessAmount;\n//        uint tokenPurchase = purchaseAmount / SHARES_PER_ETH;\n//\n//        // Cannot purchase more tokens than this contract has available to sell\n//        require(tokenPurchase <= token.balanceOf(this));\n//\n//        // Return any excess msg.value\n//        if (excessAmount > 0) {\n//            msg.sender.transfer(excessAmount);\n//        }\n//\n//        // Transfer funds to wallet\n//        wallet.transfer(purchaseAmount);\n//\n//        // Transfer tokens to buyer\n//        token.transfer(buyer, tokenPurchase);\n//\n//        // Log event\n//        LogPurchase(buyer, weiReceived);\n//    }\n\n    /**\n     * @dev Change ownership\n     */\n    function changeOwner(\n        address _newOwner\n    )\n        onlyOwner\n    {\n        require(_newOwner != 0);\n        owner = _newOwner;\n    }\n}\n",
  "sourcePath": "/home/vkandy/workspaces/digistrat/vyral/contracts/VyralSale.sol",
  "compiler": {
    "name": "solc",
    "version": "0.4.18+commit.9cf6e910.Emscripten.clang"
  },
  "schemaVersion": "1.0.1",
  "updatedAt": "2017-11-12T04:47:57.731Z"
}